{
  "contracts/ECommerce.sol": {
    "ECommerce": {
      "abi": [
        {
          "inputs": [
            {
              "internalType": "address",
              "name": "owner",
              "type": "address"
            }
          ],
          "name": "OwnableInvalidOwner",
          "type": "error"
        },
        {
          "inputs": [
            {
              "internalType": "address",
              "name": "account",
              "type": "address"
            }
          ],
          "name": "OwnableUnauthorizedAccount",
          "type": "error"
        },
        {
          "anonymous": false,
          "inputs": [
            {
              "indexed": true,
              "internalType": "address",
              "name": "previousOwner",
              "type": "address"
            },
            {
              "indexed": true,
              "internalType": "address",
              "name": "newOwner",
              "type": "address"
            }
          ],
          "name": "OwnershipTransferred",
          "type": "event"
        },
        {
          "anonymous": false,
          "inputs": [
            {
              "indexed": false,
              "internalType": "uint256",
              "name": "id",
              "type": "uint256"
            },
            {
              "indexed": false,
              "internalType": "string",
              "name": "name",
              "type": "string"
            },
            {
              "indexed": false,
              "internalType": "uint256",
              "name": "price",
              "type": "uint256"
            },
            {
              "indexed": false,
              "internalType": "address payable",
              "name": "seller",
              "type": "address"
            },
            {
              "indexed": false,
              "internalType": "address payable",
              "name": "buyer",
              "type": "address"
            },
            {
              "indexed": false,
              "internalType": "bool",
              "name": "isSold",
              "type": "bool"
            }
          ],
          "name": "PaymentConfirmed",
          "type": "event"
        },
        {
          "anonymous": false,
          "inputs": [
            {
              "indexed": false,
              "internalType": "uint256",
              "name": "id",
              "type": "uint256"
            },
            {
              "indexed": false,
              "internalType": "string",
              "name": "name",
              "type": "string"
            },
            {
              "indexed": false,
              "internalType": "string",
              "name": "imageUrl",
              "type": "string"
            },
            {
              "indexed": false,
              "internalType": "uint256",
              "name": "price",
              "type": "uint256"
            },
            {
              "indexed": false,
              "internalType": "address payable",
              "name": "seller",
              "type": "address"
            },
            {
              "indexed": false,
              "internalType": "string",
              "name": "sellerName",
              "type": "string"
            },
            {
              "indexed": false,
              "internalType": "bool",
              "name": "isSold",
              "type": "bool"
            },
            {
              "indexed": false,
              "internalType": "bool",
              "name": "isPaid",
              "type": "bool"
            }
          ],
          "name": "ProductCreated",
          "type": "event"
        },
        {
          "anonymous": false,
          "inputs": [
            {
              "indexed": false,
              "internalType": "uint256",
              "name": "id",
              "type": "uint256"
            },
            {
              "indexed": false,
              "internalType": "string",
              "name": "name",
              "type": "string"
            },
            {
              "indexed": false,
              "internalType": "uint256",
              "name": "price",
              "type": "uint256"
            },
            {
              "indexed": false,
              "internalType": "address payable",
              "name": "seller",
              "type": "address"
            },
            {
              "indexed": false,
              "internalType": "address payable",
              "name": "buyer",
              "type": "address"
            },
            {
              "indexed": false,
              "internalType": "bool",
              "name": "isPaid",
              "type": "bool"
            }
          ],
          "name": "ProductPurchased",
          "type": "event"
        },
        {
          "anonymous": false,
          "inputs": [
            {
              "indexed": true,
              "internalType": "address",
              "name": "sellerAddress",
              "type": "address"
            },
            {
              "indexed": false,
              "internalType": "string",
              "name": "reason",
              "type": "string"
            }
          ],
          "name": "SellerBlocked",
          "type": "event"
        },
        {
          "anonymous": false,
          "inputs": [
            {
              "indexed": true,
              "internalType": "address",
              "name": "sellerAddress",
              "type": "address"
            },
            {
              "indexed": false,
              "internalType": "uint256",
              "name": "rating",
              "type": "uint256"
            }
          ],
          "name": "SellerRated",
          "type": "event"
        },
        {
          "anonymous": false,
          "inputs": [
            {
              "indexed": true,
              "internalType": "address",
              "name": "sellerAddress",
              "type": "address"
            },
            {
              "indexed": false,
              "internalType": "string",
              "name": "name",
              "type": "string"
            },
            {
              "indexed": false,
              "internalType": "string",
              "name": "profileURI",
              "type": "string"
            }
          ],
          "name": "SellerRegistered",
          "type": "event"
        },
        {
          "inputs": [
            {
              "internalType": "address",
              "name": "",
              "type": "address"
            }
          ],
          "name": "blockedSellers",
          "outputs": [
            {
              "internalType": "address",
              "name": "sellerAddress",
              "type": "address"
            },
            {
              "internalType": "string",
              "name": "reason",
              "type": "string"
            }
          ],
          "stateMutability": "view",
          "type": "function"
        },
        {
          "inputs": [
            {
              "internalType": "uint256",
              "name": "",
              "type": "uint256"
            },
            {
              "internalType": "address",
              "name": "",
              "type": "address"
            }
          ],
          "name": "buyerCanceled",
          "outputs": [
            {
              "internalType": "bool",
              "name": "",
              "type": "bool"
            }
          ],
          "stateMutability": "view",
          "type": "function"
        },
        {
          "inputs": [
            {
              "internalType": "uint256",
              "name": "_id",
              "type": "uint256"
            }
          ],
          "name": "cancelPurchase",
          "outputs": [],
          "stateMutability": "nonpayable",
          "type": "function"
        },
        {
          "inputs": [
            {
              "internalType": "uint256",
              "name": "",
              "type": "uint256"
            }
          ],
          "name": "canceledPurchases",
          "outputs": [
            {
              "internalType": "bool",
              "name": "",
              "type": "bool"
            }
          ],
          "stateMutability": "view",
          "type": "function"
        },
        {
          "inputs": [],
          "name": "cancellationPenaltyPercentage",
          "outputs": [
            {
              "internalType": "uint256",
              "name": "",
              "type": "uint256"
            }
          ],
          "stateMutability": "view",
          "type": "function"
        },
        {
          "inputs": [
            {
              "internalType": "uint256",
              "name": "_id",
              "type": "uint256"
            }
          ],
          "name": "confirmPayment",
          "outputs": [],
          "stateMutability": "nonpayable",
          "type": "function"
        },
        {
          "inputs": [
            {
              "internalType": "string",
              "name": "_name",
              "type": "string"
            },
            {
              "internalType": "string",
              "name": "_imageUrl",
              "type": "string"
            },
            {
              "internalType": "uint256",
              "name": "_price",
              "type": "uint256"
            },
            {
              "internalType": "string",
              "name": "_description",
              "type": "string"
            }
          ],
          "name": "createProduct",
          "outputs": [],
          "stateMutability": "nonpayable",
          "type": "function"
        },
        {
          "inputs": [],
          "name": "feePercentage",
          "outputs": [
            {
              "internalType": "uint256",
              "name": "",
              "type": "uint256"
            }
          ],
          "stateMutability": "view",
          "type": "function"
        },
        {
          "inputs": [
            {
              "internalType": "uint256",
              "name": "_id",
              "type": "uint256"
            }
          ],
          "name": "getProduct",
          "outputs": [
            {
              "components": [
                {
                  "internalType": "uint256",
                  "name": "id",
                  "type": "uint256"
                },
                {
                  "internalType": "string",
                  "name": "name",
                  "type": "string"
                },
                {
                  "internalType": "string",
                  "name": "imageUrl",
                  "type": "string"
                },
                {
                  "internalType": "uint256",
                  "name": "price",
                  "type": "uint256"
                },
                {
                  "internalType": "address payable",
                  "name": "seller",
                  "type": "address"
                },
                {
                  "internalType": "string",
                  "name": "sellerName",
                  "type": "string"
                },
                {
                  "internalType": "bool",
                  "name": "isSold",
                  "type": "bool"
                },
                {
                  "internalType": "bool",
                  "name": "isPaid",
                  "type": "bool"
                },
                {
                  "internalType": "address payable",
                  "name": "buyer",
                  "type": "address"
                },
                {
                  "internalType": "string",
                  "name": "description",
                  "type": "string"
                }
              ],
              "internalType": "struct ECommerce.Product",
              "name": "",
              "type": "tuple"
            }
          ],
          "stateMutability": "view",
          "type": "function"
        },
        {
          "inputs": [
            {
              "internalType": "uint256",
              "name": "_id",
              "type": "uint256"
            }
          ],
          "name": "getSellerDetails",
          "outputs": [
            {
              "components": [
                {
                  "internalType": "string",
                  "name": "location",
                  "type": "string"
                },
                {
                  "internalType": "string",
                  "name": "phoneNumber",
                  "type": "string"
                }
              ],
              "internalType": "struct ECommerce.SellerContact",
              "name": "",
              "type": "tuple"
            }
          ],
          "stateMutability": "view",
          "type": "function"
        },
        {
          "inputs": [
            {
              "internalType": "uint256",
              "name": "",
              "type": "uint256"
            },
            {
              "internalType": "address",
              "name": "",
              "type": "address"
            }
          ],
          "name": "hasReported",
          "outputs": [
            {
              "internalType": "bool",
              "name": "",
              "type": "bool"
            }
          ],
          "stateMutability": "view",
          "type": "function"
        },
        {
          "inputs": [
            {
              "internalType": "address",
              "name": "",
              "type": "address"
            }
          ],
          "name": "isSellerBlocked",
          "outputs": [
            {
              "internalType": "bool",
              "name": "",
              "type": "bool"
            }
          ],
          "stateMutability": "view",
          "type": "function"
        },
        {
          "inputs": [],
          "name": "owner",
          "outputs": [
            {
              "internalType": "address",
              "name": "",
              "type": "address"
            }
          ],
          "stateMutability": "view",
          "type": "function"
        },
        {
          "inputs": [],
          "name": "penaltyPercentage",
          "outputs": [
            {
              "internalType": "uint256",
              "name": "",
              "type": "uint256"
            }
          ],
          "stateMutability": "view",
          "type": "function"
        },
        {
          "inputs": [],
          "name": "productCount",
          "outputs": [
            {
              "internalType": "uint256",
              "name": "",
              "type": "uint256"
            }
          ],
          "stateMutability": "view",
          "type": "function"
        },
        {
          "inputs": [
            {
              "internalType": "uint256",
              "name": "",
              "type": "uint256"
            }
          ],
          "name": "products",
          "outputs": [
            {
              "internalType": "uint256",
              "name": "id",
              "type": "uint256"
            },
            {
              "internalType": "string",
              "name": "name",
              "type": "string"
            },
            {
              "internalType": "string",
              "name": "imageUrl",
              "type": "string"
            },
            {
              "internalType": "uint256",
              "name": "price",
              "type": "uint256"
            },
            {
              "internalType": "address payable",
              "name": "seller",
              "type": "address"
            },
            {
              "internalType": "string",
              "name": "sellerName",
              "type": "string"
            },
            {
              "internalType": "bool",
              "name": "isSold",
              "type": "bool"
            },
            {
              "internalType": "bool",
              "name": "isPaid",
              "type": "bool"
            },
            {
              "internalType": "address payable",
              "name": "buyer",
              "type": "address"
            },
            {
              "internalType": "string",
              "name": "description",
              "type": "string"
            }
          ],
          "stateMutability": "view",
          "type": "function"
        },
        {
          "inputs": [
            {
              "internalType": "uint256",
              "name": "_id",
              "type": "uint256"
            }
          ],
          "name": "purchaseProduct",
          "outputs": [],
          "stateMutability": "payable",
          "type": "function"
        },
        {
          "inputs": [
            {
              "internalType": "address",
              "name": "_seller",
              "type": "address"
            }
          ],
          "name": "rateSeller",
          "outputs": [],
          "stateMutability": "nonpayable",
          "type": "function"
        },
        {
          "inputs": [
            {
              "internalType": "string",
              "name": "_name",
              "type": "string"
            },
            {
              "internalType": "string",
              "name": "_profileURI",
              "type": "string"
            },
            {
              "internalType": "string",
              "name": "_location",
              "type": "string"
            },
            {
              "internalType": "string",
              "name": "_phoneNumber",
              "type": "string"
            }
          ],
          "name": "registerSeller",
          "outputs": [],
          "stateMutability": "nonpayable",
          "type": "function"
        },
        {
          "inputs": [],
          "name": "renounceOwnership",
          "outputs": [],
          "stateMutability": "nonpayable",
          "type": "function"
        },
        {
          "inputs": [
            {
              "internalType": "uint256",
              "name": "_id",
              "type": "uint256"
            }
          ],
          "name": "reportCanceledPurchase",
          "outputs": [],
          "stateMutability": "nonpayable",
          "type": "function"
        },
        {
          "inputs": [
            {
              "internalType": "address",
              "name": "",
              "type": "address"
            }
          ],
          "name": "sellerContacts",
          "outputs": [
            {
              "internalType": "string",
              "name": "location",
              "type": "string"
            },
            {
              "internalType": "string",
              "name": "phoneNumber",
              "type": "string"
            }
          ],
          "stateMutability": "view",
          "type": "function"
        },
        {
          "inputs": [
            {
              "internalType": "address",
              "name": "",
              "type": "address"
            }
          ],
          "name": "sellers",
          "outputs": [
            {
              "internalType": "string",
              "name": "name",
              "type": "string"
            },
            {
              "internalType": "string",
              "name": "profileURI",
              "type": "string"
            },
            {
              "internalType": "uint256",
              "name": "confirmedPurchases",
              "type": "uint256"
            },
            {
              "internalType": "uint256",
              "name": "canceledPurchases",
              "type": "uint256"
            },
            {
              "internalType": "uint256",
              "name": "reportedPurchases",
              "type": "uint256"
            },
            {
              "internalType": "uint256",
              "name": "rating",
              "type": "uint256"
            }
          ],
          "stateMutability": "view",
          "type": "function"
        },
        {
          "inputs": [],
          "name": "totalFeesCollected",
          "outputs": [
            {
              "internalType": "uint256",
              "name": "",
              "type": "uint256"
            }
          ],
          "stateMutability": "view",
          "type": "function"
        },
        {
          "inputs": [
            {
              "internalType": "address",
              "name": "newOwner",
              "type": "address"
            }
          ],
          "name": "transferOwnership",
          "outputs": [],
          "stateMutability": "nonpayable",
          "type": "function"
        },
        {
          "inputs": [],
          "name": "withdrawFees",
          "outputs": [],
          "stateMutability": "nonpayable",
          "type": "function"
        }
      ],
      "evm": {
        "bytecode": {
          "linkReferences": {},
          "object": "60808060405234608e57331560785760008054336001600160a01b0319821681178355916001600160a01b03909116907f8be0079c531659141344cd1fd0a4f28419497f9722a3daafe3b4186f6b6457e09080a360006001556005600a556003600b55600a600c556000600d556128c290816100948239f35b631e4fbdf760e01b600052600060045260246000fd5b600080fdfe608080604052600436101561001357600080fd5b60003560e01c90816309f5d7ac146123a4575080630f0c3fc4146123575780631205de47146122f257806312c8919614611abd57806315908d5114611a9f57806315c24ed91461133d5780632d24077d1461119857806338e76a0314610fe9578063476343ee14610f9c5780635e00d85614610f7e57806360c6d8ae14610f60578063633c3b0d14610f0c5780636d47ab7214610e70578063715018a614610e175780637acc0b2014610d1e578063876ca09f14610b5d5780638da5cb5b14610b345780639833dcfa146106a6578063a001ecdd14610688578063b9db15b4146104ba578063c3634ddc146102a6578063e0f6ef8714610288578063ec1a9e8814610257578063f2fde38b146101ce578063f6139f03146101815763fd660d681461013d57600080fd5b3461017c57602036600319011261017c576001600160a01b0361015e6124fd565b166000526006602052602060ff604060002054166040519015158152f35b600080fd5b3461017c57604036600319011261017c5761019a612513565b600435600052600960205260406000209060018060a01b0316600052602052602060ff604060002054166040519015158152f35b3461017c57602036600319011261017c576101e76124fd565b6101ef612863565b6001600160a01b0316801561024157600080546001600160a01b03198116831782556001600160a01b0316907f8be0079c531659141344cd1fd0a4f28419497f9722a3daafe3b4186f6b6457e09080a3005b631e4fbdf760e01b600052600060045260246000fd5b3461017c57602036600319011261017c576004356000526008602052602060ff604060002054166040519015158152f35b3461017c57600036600319011261017c576020600154604051908152f35b3461017c57602036600319011261017c57600435806000526002602052604060002090600682019182543360018060a01b038260101c16036104665760081c60ff161561042a5760038101549060008080806103116064610309600c5489612836565b048097612849565b61033661032d6064610325600b548b612836565b048099612849565b97600d54612856565b600d55885461ff001981168a5582908215610420575b60101c6001600160a01b031690f11561040b576000808060048194019460018060a01b03865416828215610417575bf11561040b5760018060a01b0390541660005260036020526003604060002001805490600182018092116103f5575560009081526008602090815260408083208054600160ff19918216811790925560098452828520338652909352922080549091169091179055805462010000600160b01b0319169055005b634e487b7160e01b600052601160045260246000fd5b6040513d6000823e3d90fd5b506108fc61037b565b6108fc915061034c565b60405162461bcd60e51b8152602060048201526014602482015273283937b23ab1ba103737ba103830b4b2103337b960611b6044820152606490fd5b60405162461bcd60e51b815260206004820152602660248201527f4f6e6c79207468652062757965722063616e2063616e63656c2074686520707560448201526572636861736560d01b6064820152608490fd5b3461017c57602036600319011261017c5760606101206040516104dc81612563565b60008152826020820152826040820152600083820152600060808201528260a0820152600060c0820152600060e082015260006101008201520152600435600052600260205261016060406000206106846040519161053a83612563565b8054835261054a600182016125bb565b926020810193845261055e600283016125bb565b6040820190815260038301546060830190815260048401546001600160a01b03166080840190815291939061064f90610599600584016125bb565b60a0860190815260068401549461062760c088019860ff881615158a526106146105e8600760e08c019960ff8c60081c1615158b526101008d019b60018060a01b039060101c168c52016125bb565b9961012081019a8b526040519e8f9e8f926020845251602084015251916101406040820152019061265f565b90518c8203601f190160608e015261265f565b925160808b0152516001600160a01b031660a08a015251888203601f190160c08a015261265f565b9351151560e0870152511515610100860152516001600160a01b031661012085015251838203601f190161014085015261265f565b0390f35b3461017c57600036600319011261017c576020600a54604051908152f35b3461017c57602036600319011261017c57600435806000526002602052604060002081600052600860205260ff6040600020541615610aef57600082815260096020908152604080832033845290915290205460ff1615610aab57600082815260076020908152604080832033845290915290205460ff16610a56576004916000526007602052604060002060018060a01b0333166000526020526040600020600160ff198254161790550160018060a01b0381541660005260036020526004604060002001805490600182018092116103f55755546001600160a01b0316600081815260036020819052604090912060040154101580610a3d575b6107a857005b604051906107b760608361259a565b602c82527f4d756c7469706c65207265706f7274732077697468206e6f20636f6e6669726d60208301526b65642070757263686173657360a01b604083015280600052600660205260ff604060002054166109f857604051916108198361257f565b8183526020808401828152600084815260059092526040909120935184546001600160a01b0319166001600160a01b03919091161784555180519093600101906001600160401b0381116109e2576108718254612529565b601f811161099a575b506020601f821160011461090d5790806108fd9493927fd1ab8ed187c2b3794adb1cc1433a2872e8e959a63970ede2beaec4df3f894bef9697600092610902575b50508160011b916000199060031b1c19161790555b8360005260066020526040600020600160ff1982541617905560405191829160208352602083019061265f565b0390a2005b0151905087806108bb565b601f1982169583600052816000209660005b81811061098257509660019284926108fd9796957fd1ab8ed187c2b3794adb1cc1433a2872e8e959a63970ede2beaec4df3f894bef999a10610969575b505050811b0190556108d0565b015160001960f88460031b161c1916905587808061095c565b8383015189556001909801976020938401930161091f565b826000526020600020601f830160051c810191602084106109d8575b601f0160051c01905b8181106109cc575061087a565b600081556001016109bf565b90915081906109b6565b634e487b7160e01b600052604160045260246000fd5b60405162461bcd60e51b815260206004820152601960248201527f53656c6c657220697320616c726561647920626c6f636b6564000000000000006044820152606490fd5b50806000526003602052600260406000200154156107a2565b60405162461bcd60e51b815260206004820152602760248201527f596f75206861766520616c7265616479207265706f72746564207468697320706044820152667572636861736560c81b6064820152608490fd5b606460405162461bcd60e51b815260206004820152602060248201527f596f7520646964206e6f742063616e63656c20746869732070757263686173656044820152fd5b60405162461bcd60e51b815260206004820152601e60248201527f507572636861736520686173206e6f74206265656e2063616e63656c656400006044820152606490fd5b3461017c57600036600319011261017c576000546040516001600160a01b039091168152602090f35b3461017c57602036600319011261017c57600435806000526002602052604060002090600682019182543360018060a01b038260101c1603610cca5760ff16610c85576003810192835492610bcd610bc46064610bbc600a5488612836565b048096612849565b94600d54612856565b600d55600160ff198354161782556000808080600487019760018060a01b03895416828215610c7c575bf11561040b5760018060a01b038454166000526003602052600260406000200191825494600186018096116103f5577f9620b27be3795a0ce7111c8e7168631996e44dd6a5f7cc7234c970605378ccc896600196610c7795555490868060a01b0390541691868060a01b03905460101c16926040519687960190866127f5565b0390a1005b506108fc610bf7565b60405162461bcd60e51b815260206004820152601760248201527f50726f6475637420697320616c726561647920736f6c640000000000000000006044820152606490fd5b60405162461bcd60e51b815260206004820152602660248201527f4f6e6c79207468652062757965722063616e20636f6e6669726d207468652070604482015265185e5b595b9d60d21b6064820152608490fd5b3461017c57602036600319011261017c57600435600052600260205260406000208054610684610d50600184016125bb565b92610d5d600282016125bb565b60038201546004830154610ddb91906001600160a01b0316610d81600586016125bb565b90610dc3610d966007600689015498016125bb565b95610db56040519b8c9b8c5261014060208d01526101408c019061265f565b908a820360408c015261265f565b926060890152608088015286820360a088015261265f565b60ff808416151560c0870152600884901c16151560e086015260109290921c6001600160a01b031661010085015283820361012085015261265f565b3461017c57600036600319011261017c57610e30612863565b600080546001600160a01b0319811682556001600160a01b03167f8be0079c531659141344cd1fd0a4f28419497f9722a3daafe3b4186f6b6457e08280a3005b3461017c57602036600319011261017c576001600160a01b03610e916124fd565b166000526003602052610ee56040600020610eab816125bb565b90610eb8600182016125bb565b6002820154916003810154610ef3600560048401549301549360405197889760c0895260c089019061265f565b90878203602089015261265f565b9360408601526060850152608084015260a08301520390f35b3461017c57602036600319011261017c576001600160a01b03610f2d6124fd565b1660005260046020526040600020610f506001610f49836125bb565b92016125bb565b90610684604051928392836126f6565b3461017c57600036600319011261017c576020600d54604051908152f35b3461017c57600036600319011261017c576020600c54604051908152f35b3461017c57600036600319011261017c57610fb5612863565b60008054600d548291829182916001600160a01b0316828215610fe0575bf11561040b576000600d55005b506108fc610fd3565b602036600319011261017c5760043580600052600260205260406000209060018060a01b036004830154169061102a8354801515908161118b575b506127b0565b60038301928354340361114657600681019081549460ff8660081c16611101573385146110b057610100600160b01b03199095163360101b62010000600160b01b031617610100179091557f64f41258f3d51a589cea8504d1f51403f46583535a3e84e2cbe3f8d50674d00b93610c7791905493604051948594600133940190866127f5565b60405162461bcd60e51b815260206004820152602360248201527f53656c6c65722063616e6e6f7420627579207468656972206f776e2070726f646044820152621d58dd60ea1b6064820152608490fd5b60405162461bcd60e51b815260206004820152601b60248201527f50726f6475637420697320616c7265616479207061696420666f7200000000006044820152606490fd5b60405162461bcd60e51b815260206004820152601a60248201527f496e636f72726563742045746865722076616c75652073656e740000000000006044820152606490fd5b9050600154101585611024565b3461017c57602036600319011261017c57606060206040516111b98161257f565b8281520152600435600052600260205260406000206111e28154801515908161133057506127b0565b600681015433601082901c6001600160a01b0316036112dc5760081c60ff161561127f57600460018060a01b0391015416600052600460205261126c60406000206106846112496001604051936112388561257f565b611241816125bb565b8552016125bb565b60208301908152604051938493602085525160406020860152606085019061265f565b9051838203601f1901604085015261265f565b60405162461bcd60e51b815260206004820152602f60248201527f50726f64756374206d757374206265207061696420666f7220746f207669657760448201526e2073656c6c65722064657461696c7360881b6064820152608490fd5b60405162461bcd60e51b815260206004820152602660248201527f4f6e6c79207468652062757965722063616e20766965772073656c6c65722064604482015265657461696c7360d01b6064820152608490fd5b9050600154101583611024565b3461017c57608036600319011261017c576004356001600160401b03811161017c5761136d9036906004016126a0565b6024356001600160401b03811161017c5761138c9036906004016126a0565b6044356001600160401b03811161017c576113ab9036906004016126a0565b916064356001600160401b03811161017c576113cb9036906004016126a0565b91815115611a5a57805115611a15578351156119d957825115611994573360005260036020526113ff604060002054612529565b61194f576040519360c085018581106001600160401b038211176109e25760405282855260208501948286526040810160008152606082016000815260808301906000825260a084019260008452336000526003602052604060002094518051906001600160401b0382116109e257819061147a8854612529565b601f81116118fc575b50602090601f83116001146118975760009261188c575b50508160011b916000199060031b1c19161785555b600185019951998a516001600160401b0381116109e2576114d08254612529565b601f8111611844575b506020601f82116001146117d2578190600598999a9b9c9d6000926117c7575b50508160011b916000199060031b1c19161790555b51600286015551600385015551600484015551910155604051906115318261257f565b815260208101938452336000526004602052604060002090518051906001600160401b0382116109e2576115658354612529565b601f811161177f575b50602090601f83116001146117155760019392916000918361170a575b5050600019600383901b1c191690831b1781555b0192519283516001600160401b0381116109e2576115bd8254612529565b601f81116116c2575b506020601f82116001146116355790806108fd9493927f029a886814235a877cf2ff5df3c674a946b17782bf260ca120b7b951a6d35cc6969760009261162a575b50508160011b916000199060031b1c19161790555b6040519182913395836126f6565b015190508780611607565b601f1982169583600052816000209660005b8181106116aa57509660019284926108fd9796957f029a886814235a877cf2ff5df3c674a946b17782bf260ca120b7b951a6d35cc6999a10611691575b505050811b01905561161c565b015160001960f88460031b161c19169055878080611684565b83830151895560019098019760209384019301611647565b826000526020600020601f830160051c81019160208410611700575b601f0160051c01905b8181106116f457506115c6565b600081556001016116e7565b90915081906116de565b01519050878061158b565b90601f1983169184600052816000209260005b818110611767575091600195949291838795931061174e575b505050811b01815561159f565b015160001960f88460031b161c19169055878080611741565b92936020600181928786015181550195019301611728565b836000526020600020601f840160051c810191602085106117bd575b601f0160051c01905b8181106117b1575061156e565b600081556001016117a4565b909150819061179b565b015190508d806114f9565b601f1982169c83600052816000209d60005b8181106118275750916005999a9b9c9d9e9184600195941061180e575b505050811b01905561150e565b015160001960f88460031b161c191690558d8080611801565b919e8f60016020928684930151815501940192019e91929e6117e4565b826000526020600020601f830160051c81019160208410611882575b601f0160051c01905b81811061187657506114d9565b60008155600101611869565b9091508190611860565b015190508c8061149a565b60008981528281209350601f198516905b8181106118e457509084600195949392106118cb575b505050811b0185556114af565b015160001960f88460031b161c191690558c80806118be565b929360206001819287860151815501950193016118a8565b909150876000526020600020601f840160051c81019160208510611945575b90601f859493920160051c01905b8181106119365750611483565b60008155849350600101611929565b909150819061191b565b60405162461bcd60e51b815260206004820152601960248201527f53656c6c657220616c72656164792072656769737465726564000000000000006044820152606490fd5b60405162461bcd60e51b815260206004820152601860248201527f50686f6e65206e756d62657220697320726571756972656400000000000000006044820152606490fd5b60405162461bcd60e51b8152602060048201526014602482015273131bd8d85d1a5bdb881a5cc81c995c5d5a5c995960621b6044820152606490fd5b60405162461bcd60e51b815260206004820152601760248201527f50726f66696c65205552492069732072657175697265640000000000000000006044820152606490fd5b60405162461bcd60e51b815260206004820152601760248201527f53656c6c6572206e616d652069732072657175697265640000000000000000006044820152606490fd5b3461017c57600036600319011261017c576020600b54604051908152f35b3461017c57608036600319011261017c576004356001600160401b03811161017c57611aed9036906004016126a0565b6024356001600160401b03811161017c57611b0c9036906004016126a0565b90604435916064356001600160401b03811161017c57611b309036906004016126a0565b8251156122ad578151156122685783156122135733600052600660205260ff604060002054166121da57336000526003602052611b71604060002054612529565b1561219d57611b8160015461271e565b80600155336000526003602052604060002060405191611ba083612563565b8083526020830186815260408401928684526060850190898252611bca60808701913383526125bb565b9160a0870192835260c08701956000875260e088019460008652610100890196600088526101208a019a8b5260005260026020526040600020985189556001890190518051906001600160401b0382116109e2578190611c2a8454612529565b601f811161214a575b50602090601f83116001146120e5576000926120da575b50508160011b916000199060031b1c19161790555b51805160028901916001600160401b0382116109e2578190611c818454612529565b601f8111612087575b50602090601f831160011461202257600092612017575b50508160011b916000199060031b1c19161790555b516003870155516004860180546001600160a01b0319166001600160a01b039290921691909117905551805160058601916001600160401b0382116109e257611cff8354612529565b601f8111611fcf575b50602090601f8311600114611f5e579180611d88969492600799989694600092611f53575b50508160011b916000199060031b1c19161790555b91516006850180549351925162010000600160b01b0360109190911b1661ff0093151560081b9390931691151560ff166001600160b01b03199094169390931717179055565b0190518051906001600160401b0382116109e257611da68354612529565b601f8111611f0b575b50602090601f8311600114611e7e579180611e6094927f3affc4e431f993cddab04d3ad4fc278bd89b8267b52d6df20f056551372a0e0b9894600092611e73575b50508160011b916000199060031b1c19161790555b60015492336000526003602052611e47604060002091611e396040519788978852610100602089015261010088019061265f565b90868203604088015261265f565b91606085015233608085015283820360a085015261272d565b600060c0830152600060e08301520390a1005b015190508880611df0565b90601f1983169184600052816000209260005b818110611ef357509260019285927f3affc4e431f993cddab04d3ad4fc278bd89b8267b52d6df20f056551372a0e0b9a96611e60989610611eda575b505050811b019055611e05565b015160001960f88460031b161c19169055888080611ecd565b92936020600181928786015181550195019301611e91565b836000526020600020601f840160051c81019160208510611f49575b601f0160051c01905b818110611f3d5750611daf565b60008155600101611f30565b9091508190611f27565b015190508d80611d2d565b90601f1983169184600052816000209260005b818110611fb7575092600192859260079b9a9896611d889a989610611f9e575b505050811b019055611d42565b015160001960f88460031b161c191690558d8080611f91565b92936020600181928786015181550195019301611f71565b836000526020600020601f840160051c8101916020851061200d575b601f0160051c01905b8181106120015750611d08565b60008155600101611ff4565b9091508190611feb565b015190508e80611ca1565b60008581528281209350601f198516905b81811061206f5750908460019594939210612056575b505050811b019055611cb6565b015160001960f88460031b161c191690558e8080612049565b92936020600181928786015181550195019301612033565b909150836000526020600020601f840160051c810191602085106120d0575b90601f859493920160051c01905b8181106120c15750611c8a565b600081558493506001016120b4565b90915081906120a6565b015190508f80611c4a565b60008581528281209350601f198516905b8181106121325750908460019594939210612119575b505050811b019055611c5f565b015160001960f88460031b161c191690558f808061210c565b929360206001819287860151815501950193016120f6565b909150836000526020600020601f840160051c81019160208510612193575b90601f859493920160051c01905b8181106121845750611c33565b60008155849350600101612177565b9091508190612169565b60405162461bcd60e51b815260206004820152601560248201527414d95b1b195c881b9bdd081c9959da5cdd195c9959605a1b6044820152606490fd5b60405162461bcd60e51b815260206004820152601160248201527014d95b1b195c881a5cc8189b1bd8dad959607a1b6044820152606490fd5b60405162461bcd60e51b815260206004820152602760248201527f50726f64756374207072696365206d7573742062652067726561746572207468604482015266616e207a65726f60c81b6064820152608490fd5b60405162461bcd60e51b815260206004820152601d60248201527f50726f6475637420696d6167652055524c2069732072657175697265640000006044820152606490fd5b60405162461bcd60e51b815260206004820152601860248201527f50726f64756374206e616d6520697320726571756972656400000000000000006044820152606490fd5b3461017c57602036600319011261017c576001600160a01b036123136124fd565b16600090815260056020526040902080546001600160a01b03169061233a906001016125bb565b90610684604051928392835260406020840152604083019061265f565b3461017c57604036600319011261017c57612370612513565b600435600052600760205260406000209060018060a01b0316600052602052602060ff604060002054166040519015158152f35b3461017c57602036600319011261017c576001600160a01b036123c56124fd565b1690816000526003602052600260406000200154156124af5750600081815260036020526040902060058101546002909101541115612459578060005260036020526005604060002001612419815461271e565b90558060005260036020527f0d2a39a6fc73e40b10a3ce1af8481f31b1454fc9a86710f826bef0dc3f812d6c6020600560406000200154604051908152a2005b60405162461bcd60e51b815260206004820152602860248201527f526174696e672063616e6e6f742065786365656420636f6e6669726d65642070604482015267757263686173657360c01b6064820152608490fd5b62461bcd60e51b8152602060048201526024808201527f53656c6c6572206d757374206861766520636f6e6669726d65642070757263686044820152636173657360e01b6064820152608490fd5b600435906001600160a01b038216820361017c57565b602435906001600160a01b038216820361017c57565b90600182811c92168015612559575b602083101461254357565b634e487b7160e01b600052602260045260246000fd5b91607f1691612538565b61014081019081106001600160401b038211176109e257604052565b604081019081106001600160401b038211176109e257604052565b90601f801991011681019081106001600160401b038211176109e257604052565b90604051918260008254926125cf84612529565b808452936001811690811561263d57506001146125f6575b506125f49250038361259a565b565b90506000929192526020600020906000915b8183106126215750509060206125f492820101386125e7565b6020919350806001915483858901015201910190918492612608565b9050602092506125f494915060ff191682840152151560051b820101386125e7565b919082519283825260005b84811061268b575050826000602080949584010152601f8019910116010190565b8060208092840101518282860101520161266a565b81601f8201121561017c578035906001600160401b0382116109e257604051926126d4601f8401601f19166020018561259a565b8284526020838301011161017c57816000926020809301838601378301015290565b909161270d61271b9360408452604084019061265f565b91602081840391015261265f565b90565b60001981146103f55760010190565b6000929181549161273d83612529565b8083529260018116908115612793575060011461275957505050565b60009081526020812093945091925b838310612779575060209250010190565b600181602092949394548385870101520191019190612768565b915050602093945060ff929192191683830152151560051b010190565b156127b757565b60405162461bcd60e51b8152602060048201526016602482015275141c9bd91d58dd08191bd95cc81b9bdd08195e1a5cdd60521b6044820152606490fd5b919361281660019560a095989793855260c0602086015260c085019061272d565b9660408401528480851b031660608301528380841b031660808201520152565b818102929181159184041417156103f557565b919082039182116103f557565b919082018092116103f557565b6000546001600160a01b0316330361287757565b63118cdaa760e01b6000523360045260246000fdfea26469706673582212201798b756d340cdee7c808c0979c222b8a9fce164b1fc34955200d0e31c111ccc64736f6c634300081c0033",
          "opcodes": "PUSH1 0x80 DUP1 PUSH1 0x40 MSTORE CALLVALUE PUSH1 0x8E JUMPI CALLER ISZERO PUSH1 0x78 JUMPI PUSH1 0x0 DUP1 SLOAD CALLER PUSH1 0x1 PUSH1 0x1 PUSH1 0xA0 SHL SUB NOT DUP3 AND DUP2 OR DUP4 SSTORE SWAP2 PUSH1 0x1 PUSH1 0x1 PUSH1 0xA0 SHL SUB SWAP1 SWAP2 AND SWAP1 PUSH32 0x8BE0079C531659141344CD1FD0A4F28419497F9722A3DAAFE3B4186F6B6457E0 SWAP1 DUP1 LOG3 PUSH1 0x0 PUSH1 0x1 SSTORE PUSH1 0x5 PUSH1 0xA SSTORE PUSH1 0x3 PUSH1 0xB SSTORE PUSH1 0xA PUSH1 0xC SSTORE PUSH1 0x0 PUSH1 0xD SSTORE PUSH2 0x28C2 SWAP1 DUP2 PUSH2 0x94 DUP3 CODECOPY RETURN JUMPDEST PUSH4 0x1E4FBDF7 PUSH1 0xE0 SHL PUSH1 0x0 MSTORE PUSH1 0x0 PUSH1 0x4 MSTORE PUSH1 0x24 PUSH1 0x0 REVERT JUMPDEST PUSH1 0x0 DUP1 REVERT INVALID PUSH1 0x80 DUP1 PUSH1 0x40 MSTORE PUSH1 0x4 CALLDATASIZE LT ISZERO PUSH2 0x13 JUMPI PUSH1 0x0 DUP1 REVERT JUMPDEST PUSH1 0x0 CALLDATALOAD PUSH1 0xE0 SHR SWAP1 DUP2 PUSH4 0x9F5D7AC EQ PUSH2 0x23A4 JUMPI POP DUP1 PUSH4 0xF0C3FC4 EQ PUSH2 0x2357 JUMPI DUP1 PUSH4 0x1205DE47 EQ PUSH2 0x22F2 JUMPI DUP1 PUSH4 0x12C89196 EQ PUSH2 0x1ABD JUMPI DUP1 PUSH4 0x15908D51 EQ PUSH2 0x1A9F JUMPI DUP1 PUSH4 0x15C24ED9 EQ PUSH2 0x133D JUMPI DUP1 PUSH4 0x2D24077D EQ PUSH2 0x1198 JUMPI DUP1 PUSH4 0x38E76A03 EQ PUSH2 0xFE9 JUMPI DUP1 PUSH4 0x476343EE EQ PUSH2 0xF9C JUMPI DUP1 PUSH4 0x5E00D856 EQ PUSH2 0xF7E JUMPI DUP1 PUSH4 0x60C6D8AE EQ PUSH2 0xF60 JUMPI DUP1 PUSH4 0x633C3B0D EQ PUSH2 0xF0C JUMPI DUP1 PUSH4 0x6D47AB72 EQ PUSH2 0xE70 JUMPI DUP1 PUSH4 0x715018A6 EQ PUSH2 0xE17 JUMPI DUP1 PUSH4 0x7ACC0B20 EQ PUSH2 0xD1E JUMPI DUP1 PUSH4 0x876CA09F EQ PUSH2 0xB5D JUMPI DUP1 PUSH4 0x8DA5CB5B EQ PUSH2 0xB34 JUMPI DUP1 PUSH4 0x9833DCFA EQ PUSH2 0x6A6 JUMPI DUP1 PUSH4 0xA001ECDD EQ PUSH2 0x688 JUMPI DUP1 PUSH4 0xB9DB15B4 EQ PUSH2 0x4BA JUMPI DUP1 PUSH4 0xC3634DDC EQ PUSH2 0x2A6 JUMPI DUP1 PUSH4 0xE0F6EF87 EQ PUSH2 0x288 JUMPI DUP1 PUSH4 0xEC1A9E88 EQ PUSH2 0x257 JUMPI DUP1 PUSH4 0xF2FDE38B EQ PUSH2 0x1CE JUMPI DUP1 PUSH4 0xF6139F03 EQ PUSH2 0x181 JUMPI PUSH4 0xFD660D68 EQ PUSH2 0x13D JUMPI PUSH1 0x0 DUP1 REVERT JUMPDEST CALLVALUE PUSH2 0x17C JUMPI PUSH1 0x20 CALLDATASIZE PUSH1 0x3 NOT ADD SLT PUSH2 0x17C JUMPI PUSH1 0x1 PUSH1 0x1 PUSH1 0xA0 SHL SUB PUSH2 0x15E PUSH2 0x24FD JUMP JUMPDEST AND PUSH1 0x0 MSTORE PUSH1 0x6 PUSH1 0x20 MSTORE PUSH1 0x20 PUSH1 0xFF PUSH1 0x40 PUSH1 0x0 KECCAK256 SLOAD AND PUSH1 0x40 MLOAD SWAP1 ISZERO ISZERO DUP2 MSTORE RETURN JUMPDEST PUSH1 0x0 DUP1 REVERT JUMPDEST CALLVALUE PUSH2 0x17C JUMPI PUSH1 0x40 CALLDATASIZE PUSH1 0x3 NOT ADD SLT PUSH2 0x17C JUMPI PUSH2 0x19A PUSH2 0x2513 JUMP JUMPDEST PUSH1 0x4 CALLDATALOAD PUSH1 0x0 MSTORE PUSH1 0x9 PUSH1 0x20 MSTORE PUSH1 0x40 PUSH1 0x0 KECCAK256 SWAP1 PUSH1 0x1 DUP1 PUSH1 0xA0 SHL SUB AND PUSH1 0x0 MSTORE PUSH1 0x20 MSTORE PUSH1 0x20 PUSH1 0xFF PUSH1 0x40 PUSH1 0x0 KECCAK256 SLOAD AND PUSH1 0x40 MLOAD SWAP1 ISZERO ISZERO DUP2 MSTORE RETURN JUMPDEST CALLVALUE PUSH2 0x17C JUMPI PUSH1 0x20 CALLDATASIZE PUSH1 0x3 NOT ADD SLT PUSH2 0x17C JUMPI PUSH2 0x1E7 PUSH2 0x24FD JUMP JUMPDEST PUSH2 0x1EF PUSH2 0x2863 JUMP JUMPDEST PUSH1 0x1 PUSH1 0x1 PUSH1 0xA0 SHL SUB AND DUP1 ISZERO PUSH2 0x241 JUMPI PUSH1 0x0 DUP1 SLOAD PUSH1 0x1 PUSH1 0x1 PUSH1 0xA0 SHL SUB NOT DUP2 AND DUP4 OR DUP3 SSTORE PUSH1 0x1 PUSH1 0x1 PUSH1 0xA0 SHL SUB AND SWAP1 PUSH32 0x8BE0079C531659141344CD1FD0A4F28419497F9722A3DAAFE3B4186F6B6457E0 SWAP1 DUP1 LOG3 STOP JUMPDEST PUSH4 0x1E4FBDF7 PUSH1 0xE0 SHL PUSH1 0x0 MSTORE PUSH1 0x0 PUSH1 0x4 MSTORE PUSH1 0x24 PUSH1 0x0 REVERT JUMPDEST CALLVALUE PUSH2 0x17C JUMPI PUSH1 0x20 CALLDATASIZE PUSH1 0x3 NOT ADD SLT PUSH2 0x17C JUMPI PUSH1 0x4 CALLDATALOAD PUSH1 0x0 MSTORE PUSH1 0x8 PUSH1 0x20 MSTORE PUSH1 0x20 PUSH1 0xFF PUSH1 0x40 PUSH1 0x0 KECCAK256 SLOAD AND PUSH1 0x40 MLOAD SWAP1 ISZERO ISZERO DUP2 MSTORE RETURN JUMPDEST CALLVALUE PUSH2 0x17C JUMPI PUSH1 0x0 CALLDATASIZE PUSH1 0x3 NOT ADD SLT PUSH2 0x17C JUMPI PUSH1 0x20 PUSH1 0x1 SLOAD PUSH1 0x40 MLOAD SWAP1 DUP2 MSTORE RETURN JUMPDEST CALLVALUE PUSH2 0x17C JUMPI PUSH1 0x20 CALLDATASIZE PUSH1 0x3 NOT ADD SLT PUSH2 0x17C JUMPI PUSH1 0x4 CALLDATALOAD DUP1 PUSH1 0x0 MSTORE PUSH1 0x2 PUSH1 0x20 MSTORE PUSH1 0x40 PUSH1 0x0 KECCAK256 SWAP1 PUSH1 0x6 DUP3 ADD SWAP2 DUP3 SLOAD CALLER PUSH1 0x1 DUP1 PUSH1 0xA0 SHL SUB DUP3 PUSH1 0x10 SHR AND SUB PUSH2 0x466 JUMPI PUSH1 0x8 SHR PUSH1 0xFF AND ISZERO PUSH2 0x42A JUMPI PUSH1 0x3 DUP2 ADD SLOAD SWAP1 PUSH1 0x0 DUP1 DUP1 DUP1 PUSH2 0x311 PUSH1 0x64 PUSH2 0x309 PUSH1 0xC SLOAD DUP10 PUSH2 0x2836 JUMP JUMPDEST DIV DUP1 SWAP8 PUSH2 0x2849 JUMP JUMPDEST PUSH2 0x336 PUSH2 0x32D PUSH1 0x64 PUSH2 0x325 PUSH1 0xB SLOAD DUP12 PUSH2 0x2836 JUMP JUMPDEST DIV DUP1 SWAP10 PUSH2 0x2849 JUMP JUMPDEST SWAP8 PUSH1 0xD SLOAD PUSH2 0x2856 JUMP JUMPDEST PUSH1 0xD SSTORE DUP9 SLOAD PUSH2 0xFF00 NOT DUP2 AND DUP11 SSTORE DUP3 SWAP1 DUP3 ISZERO PUSH2 0x420 JUMPI JUMPDEST PUSH1 0x10 SHR PUSH1 0x1 PUSH1 0x1 PUSH1 0xA0 SHL SUB AND SWAP1 CALL ISZERO PUSH2 0x40B JUMPI PUSH1 0x0 DUP1 DUP1 PUSH1 0x4 DUP2 SWAP5 ADD SWAP5 PUSH1 0x1 DUP1 PUSH1 0xA0 SHL SUB DUP7 SLOAD AND DUP3 DUP3 ISZERO PUSH2 0x417 JUMPI JUMPDEST CALL ISZERO PUSH2 0x40B JUMPI PUSH1 0x1 DUP1 PUSH1 0xA0 SHL SUB SWAP1 SLOAD AND PUSH1 0x0 MSTORE PUSH1 0x3 PUSH1 0x20 MSTORE PUSH1 0x3 PUSH1 0x40 PUSH1 0x0 KECCAK256 ADD DUP1 SLOAD SWAP1 PUSH1 0x1 DUP3 ADD DUP1 SWAP3 GT PUSH2 0x3F5 JUMPI SSTORE PUSH1 0x0 SWAP1 DUP2 MSTORE PUSH1 0x8 PUSH1 0x20 SWAP1 DUP2 MSTORE PUSH1 0x40 DUP1 DUP4 KECCAK256 DUP1 SLOAD PUSH1 0x1 PUSH1 0xFF NOT SWAP2 DUP3 AND DUP2 OR SWAP1 SWAP3 SSTORE PUSH1 0x9 DUP5 MSTORE DUP3 DUP6 KECCAK256 CALLER DUP7 MSTORE SWAP1 SWAP4 MSTORE SWAP3 KECCAK256 DUP1 SLOAD SWAP1 SWAP2 AND SWAP1 SWAP2 OR SWAP1 SSTORE DUP1 SLOAD PUSH3 0x10000 PUSH1 0x1 PUSH1 0xB0 SHL SUB NOT AND SWAP1 SSTORE STOP JUMPDEST PUSH4 0x4E487B71 PUSH1 0xE0 SHL PUSH1 0x0 MSTORE PUSH1 0x11 PUSH1 0x4 MSTORE PUSH1 0x24 PUSH1 0x0 REVERT JUMPDEST PUSH1 0x40 MLOAD RETURNDATASIZE PUSH1 0x0 DUP3 RETURNDATACOPY RETURNDATASIZE SWAP1 REVERT JUMPDEST POP PUSH2 0x8FC PUSH2 0x37B JUMP JUMPDEST PUSH2 0x8FC SWAP2 POP PUSH2 0x34C JUMP JUMPDEST PUSH1 0x40 MLOAD PUSH3 0x461BCD PUSH1 0xE5 SHL DUP2 MSTORE PUSH1 0x20 PUSH1 0x4 DUP3 ADD MSTORE PUSH1 0x14 PUSH1 0x24 DUP3 ADD MSTORE PUSH20 0x283937B23AB1BA103737BA103830B4B2103337B9 PUSH1 0x61 SHL PUSH1 0x44 DUP3 ADD MSTORE PUSH1 0x64 SWAP1 REVERT JUMPDEST PUSH1 0x40 MLOAD PUSH3 0x461BCD PUSH1 0xE5 SHL DUP2 MSTORE PUSH1 0x20 PUSH1 0x4 DUP3 ADD MSTORE PUSH1 0x26 PUSH1 0x24 DUP3 ADD MSTORE PUSH32 0x4F6E6C79207468652062757965722063616E2063616E63656C20746865207075 PUSH1 0x44 DUP3 ADD MSTORE PUSH6 0x726368617365 PUSH1 0xD0 SHL PUSH1 0x64 DUP3 ADD MSTORE PUSH1 0x84 SWAP1 REVERT JUMPDEST CALLVALUE PUSH2 0x17C JUMPI PUSH1 0x20 CALLDATASIZE PUSH1 0x3 NOT ADD SLT PUSH2 0x17C JUMPI PUSH1 0x60 PUSH2 0x120 PUSH1 0x40 MLOAD PUSH2 0x4DC DUP2 PUSH2 0x2563 JUMP JUMPDEST PUSH1 0x0 DUP2 MSTORE DUP3 PUSH1 0x20 DUP3 ADD MSTORE DUP3 PUSH1 0x40 DUP3 ADD MSTORE PUSH1 0x0 DUP4 DUP3 ADD MSTORE PUSH1 0x0 PUSH1 0x80 DUP3 ADD MSTORE DUP3 PUSH1 0xA0 DUP3 ADD MSTORE PUSH1 0x0 PUSH1 0xC0 DUP3 ADD MSTORE PUSH1 0x0 PUSH1 0xE0 DUP3 ADD MSTORE PUSH1 0x0 PUSH2 0x100 DUP3 ADD MSTORE ADD MSTORE PUSH1 0x4 CALLDATALOAD PUSH1 0x0 MSTORE PUSH1 0x2 PUSH1 0x20 MSTORE PUSH2 0x160 PUSH1 0x40 PUSH1 0x0 KECCAK256 PUSH2 0x684 PUSH1 0x40 MLOAD SWAP2 PUSH2 0x53A DUP4 PUSH2 0x2563 JUMP JUMPDEST DUP1 SLOAD DUP4 MSTORE PUSH2 0x54A PUSH1 0x1 DUP3 ADD PUSH2 0x25BB JUMP JUMPDEST SWAP3 PUSH1 0x20 DUP2 ADD SWAP4 DUP5 MSTORE PUSH2 0x55E PUSH1 0x2 DUP4 ADD PUSH2 0x25BB JUMP JUMPDEST PUSH1 0x40 DUP3 ADD SWAP1 DUP2 MSTORE PUSH1 0x3 DUP4 ADD SLOAD PUSH1 0x60 DUP4 ADD SWAP1 DUP2 MSTORE PUSH1 0x4 DUP5 ADD SLOAD PUSH1 0x1 PUSH1 0x1 PUSH1 0xA0 SHL SUB AND PUSH1 0x80 DUP5 ADD SWAP1 DUP2 MSTORE SWAP2 SWAP4 SWAP1 PUSH2 0x64F SWAP1 PUSH2 0x599 PUSH1 0x5 DUP5 ADD PUSH2 0x25BB JUMP JUMPDEST PUSH1 0xA0 DUP7 ADD SWAP1 DUP2 MSTORE PUSH1 0x6 DUP5 ADD SLOAD SWAP5 PUSH2 0x627 PUSH1 0xC0 DUP9 ADD SWAP9 PUSH1 0xFF DUP9 AND ISZERO ISZERO DUP11 MSTORE PUSH2 0x614 PUSH2 0x5E8 PUSH1 0x7 PUSH1 0xE0 DUP13 ADD SWAP10 PUSH1 0xFF DUP13 PUSH1 0x8 SHR AND ISZERO ISZERO DUP12 MSTORE PUSH2 0x100 DUP14 ADD SWAP12 PUSH1 0x1 DUP1 PUSH1 0xA0 SHL SUB SWAP1 PUSH1 0x10 SHR AND DUP13 MSTORE ADD PUSH2 0x25BB JUMP JUMPDEST SWAP10 PUSH2 0x120 DUP2 ADD SWAP11 DUP12 MSTORE PUSH1 0x40 MLOAD SWAP15 DUP16 SWAP15 DUP16 SWAP3 PUSH1 0x20 DUP5 MSTORE MLOAD PUSH1 0x20 DUP5 ADD MSTORE MLOAD SWAP2 PUSH2 0x140 PUSH1 0x40 DUP3 ADD MSTORE ADD SWAP1 PUSH2 0x265F JUMP JUMPDEST SWAP1 MLOAD DUP13 DUP3 SUB PUSH1 0x1F NOT ADD PUSH1 0x60 DUP15 ADD MSTORE PUSH2 0x265F JUMP JUMPDEST SWAP3 MLOAD PUSH1 0x80 DUP12 ADD MSTORE MLOAD PUSH1 0x1 PUSH1 0x1 PUSH1 0xA0 SHL SUB AND PUSH1 0xA0 DUP11 ADD MSTORE MLOAD DUP9 DUP3 SUB PUSH1 0x1F NOT ADD PUSH1 0xC0 DUP11 ADD MSTORE PUSH2 0x265F JUMP JUMPDEST SWAP4 MLOAD ISZERO ISZERO PUSH1 0xE0 DUP8 ADD MSTORE MLOAD ISZERO ISZERO PUSH2 0x100 DUP7 ADD MSTORE MLOAD PUSH1 0x1 PUSH1 0x1 PUSH1 0xA0 SHL SUB AND PUSH2 0x120 DUP6 ADD MSTORE MLOAD DUP4 DUP3 SUB PUSH1 0x1F NOT ADD PUSH2 0x140 DUP6 ADD MSTORE PUSH2 0x265F JUMP JUMPDEST SUB SWAP1 RETURN JUMPDEST CALLVALUE PUSH2 0x17C JUMPI PUSH1 0x0 CALLDATASIZE PUSH1 0x3 NOT ADD SLT PUSH2 0x17C JUMPI PUSH1 0x20 PUSH1 0xA SLOAD PUSH1 0x40 MLOAD SWAP1 DUP2 MSTORE RETURN JUMPDEST CALLVALUE PUSH2 0x17C JUMPI PUSH1 0x20 CALLDATASIZE PUSH1 0x3 NOT ADD SLT PUSH2 0x17C JUMPI PUSH1 0x4 CALLDATALOAD DUP1 PUSH1 0x0 MSTORE PUSH1 0x2 PUSH1 0x20 MSTORE PUSH1 0x40 PUSH1 0x0 KECCAK256 DUP2 PUSH1 0x0 MSTORE PUSH1 0x8 PUSH1 0x20 MSTORE PUSH1 0xFF PUSH1 0x40 PUSH1 0x0 KECCAK256 SLOAD AND ISZERO PUSH2 0xAEF JUMPI PUSH1 0x0 DUP3 DUP2 MSTORE PUSH1 0x9 PUSH1 0x20 SWAP1 DUP2 MSTORE PUSH1 0x40 DUP1 DUP4 KECCAK256 CALLER DUP5 MSTORE SWAP1 SWAP2 MSTORE SWAP1 KECCAK256 SLOAD PUSH1 0xFF AND ISZERO PUSH2 0xAAB JUMPI PUSH1 0x0 DUP3 DUP2 MSTORE PUSH1 0x7 PUSH1 0x20 SWAP1 DUP2 MSTORE PUSH1 0x40 DUP1 DUP4 KECCAK256 CALLER DUP5 MSTORE SWAP1 SWAP2 MSTORE SWAP1 KECCAK256 SLOAD PUSH1 0xFF AND PUSH2 0xA56 JUMPI PUSH1 0x4 SWAP2 PUSH1 0x0 MSTORE PUSH1 0x7 PUSH1 0x20 MSTORE PUSH1 0x40 PUSH1 0x0 KECCAK256 PUSH1 0x1 DUP1 PUSH1 0xA0 SHL SUB CALLER AND PUSH1 0x0 MSTORE PUSH1 0x20 MSTORE PUSH1 0x40 PUSH1 0x0 KECCAK256 PUSH1 0x1 PUSH1 0xFF NOT DUP3 SLOAD AND OR SWAP1 SSTORE ADD PUSH1 0x1 DUP1 PUSH1 0xA0 SHL SUB DUP2 SLOAD AND PUSH1 0x0 MSTORE PUSH1 0x3 PUSH1 0x20 MSTORE PUSH1 0x4 PUSH1 0x40 PUSH1 0x0 KECCAK256 ADD DUP1 SLOAD SWAP1 PUSH1 0x1 DUP3 ADD DUP1 SWAP3 GT PUSH2 0x3F5 JUMPI SSTORE SLOAD PUSH1 0x1 PUSH1 0x1 PUSH1 0xA0 SHL SUB AND PUSH1 0x0 DUP2 DUP2 MSTORE PUSH1 0x3 PUSH1 0x20 DUP2 SWAP1 MSTORE PUSH1 0x40 SWAP1 SWAP2 KECCAK256 PUSH1 0x4 ADD SLOAD LT ISZERO DUP1 PUSH2 0xA3D JUMPI JUMPDEST PUSH2 0x7A8 JUMPI STOP JUMPDEST PUSH1 0x40 MLOAD SWAP1 PUSH2 0x7B7 PUSH1 0x60 DUP4 PUSH2 0x259A JUMP JUMPDEST PUSH1 0x2C DUP3 MSTORE PUSH32 0x4D756C7469706C65207265706F7274732077697468206E6F20636F6E6669726D PUSH1 0x20 DUP4 ADD MSTORE PUSH12 0x656420707572636861736573 PUSH1 0xA0 SHL PUSH1 0x40 DUP4 ADD MSTORE DUP1 PUSH1 0x0 MSTORE PUSH1 0x6 PUSH1 0x20 MSTORE PUSH1 0xFF PUSH1 0x40 PUSH1 0x0 KECCAK256 SLOAD AND PUSH2 0x9F8 JUMPI PUSH1 0x40 MLOAD SWAP2 PUSH2 0x819 DUP4 PUSH2 0x257F JUMP JUMPDEST DUP2 DUP4 MSTORE PUSH1 0x20 DUP1 DUP5 ADD DUP3 DUP2 MSTORE PUSH1 0x0 DUP5 DUP2 MSTORE PUSH1 0x5 SWAP1 SWAP3 MSTORE PUSH1 0x40 SWAP1 SWAP2 KECCAK256 SWAP4 MLOAD DUP5 SLOAD PUSH1 0x1 PUSH1 0x1 PUSH1 0xA0 SHL SUB NOT AND PUSH1 0x1 PUSH1 0x1 PUSH1 0xA0 SHL SUB SWAP2 SWAP1 SWAP2 AND OR DUP5 SSTORE MLOAD DUP1 MLOAD SWAP1 SWAP4 PUSH1 0x1 ADD SWAP1 PUSH1 0x1 PUSH1 0x1 PUSH1 0x40 SHL SUB DUP2 GT PUSH2 0x9E2 JUMPI PUSH2 0x871 DUP3 SLOAD PUSH2 0x2529 JUMP JUMPDEST PUSH1 0x1F DUP2 GT PUSH2 0x99A JUMPI JUMPDEST POP PUSH1 0x20 PUSH1 0x1F DUP3 GT PUSH1 0x1 EQ PUSH2 0x90D JUMPI SWAP1 DUP1 PUSH2 0x8FD SWAP5 SWAP4 SWAP3 PUSH32 0xD1AB8ED187C2B3794ADB1CC1433A2872E8E959A63970EDE2BEAEC4DF3F894BEF SWAP7 SWAP8 PUSH1 0x0 SWAP3 PUSH2 0x902 JUMPI JUMPDEST POP POP DUP2 PUSH1 0x1 SHL SWAP2 PUSH1 0x0 NOT SWAP1 PUSH1 0x3 SHL SHR NOT AND OR SWAP1 SSTORE JUMPDEST DUP4 PUSH1 0x0 MSTORE PUSH1 0x6 PUSH1 0x20 MSTORE PUSH1 0x40 PUSH1 0x0 KECCAK256 PUSH1 0x1 PUSH1 0xFF NOT DUP3 SLOAD AND OR SWAP1 SSTORE PUSH1 0x40 MLOAD SWAP2 DUP3 SWAP2 PUSH1 0x20 DUP4 MSTORE PUSH1 0x20 DUP4 ADD SWAP1 PUSH2 0x265F JUMP JUMPDEST SUB SWAP1 LOG2 STOP JUMPDEST ADD MLOAD SWAP1 POP DUP8 DUP1 PUSH2 0x8BB JUMP JUMPDEST PUSH1 0x1F NOT DUP3 AND SWAP6 DUP4 PUSH1 0x0 MSTORE DUP2 PUSH1 0x0 KECCAK256 SWAP7 PUSH1 0x0 JUMPDEST DUP2 DUP2 LT PUSH2 0x982 JUMPI POP SWAP7 PUSH1 0x1 SWAP3 DUP5 SWAP3 PUSH2 0x8FD SWAP8 SWAP7 SWAP6 PUSH32 0xD1AB8ED187C2B3794ADB1CC1433A2872E8E959A63970EDE2BEAEC4DF3F894BEF SWAP10 SWAP11 LT PUSH2 0x969 JUMPI JUMPDEST POP POP POP DUP2 SHL ADD SWAP1 SSTORE PUSH2 0x8D0 JUMP JUMPDEST ADD MLOAD PUSH1 0x0 NOT PUSH1 0xF8 DUP5 PUSH1 0x3 SHL AND SHR NOT AND SWAP1 SSTORE DUP8 DUP1 DUP1 PUSH2 0x95C JUMP JUMPDEST DUP4 DUP4 ADD MLOAD DUP10 SSTORE PUSH1 0x1 SWAP1 SWAP9 ADD SWAP8 PUSH1 0x20 SWAP4 DUP5 ADD SWAP4 ADD PUSH2 0x91F JUMP JUMPDEST DUP3 PUSH1 0x0 MSTORE PUSH1 0x20 PUSH1 0x0 KECCAK256 PUSH1 0x1F DUP4 ADD PUSH1 0x5 SHR DUP2 ADD SWAP2 PUSH1 0x20 DUP5 LT PUSH2 0x9D8 JUMPI JUMPDEST PUSH1 0x1F ADD PUSH1 0x5 SHR ADD SWAP1 JUMPDEST DUP2 DUP2 LT PUSH2 0x9CC JUMPI POP PUSH2 0x87A JUMP JUMPDEST PUSH1 0x0 DUP2 SSTORE PUSH1 0x1 ADD PUSH2 0x9BF JUMP JUMPDEST SWAP1 SWAP2 POP DUP2 SWAP1 PUSH2 0x9B6 JUMP JUMPDEST PUSH4 0x4E487B71 PUSH1 0xE0 SHL PUSH1 0x0 MSTORE PUSH1 0x41 PUSH1 0x4 MSTORE PUSH1 0x24 PUSH1 0x0 REVERT JUMPDEST PUSH1 0x40 MLOAD PUSH3 0x461BCD PUSH1 0xE5 SHL DUP2 MSTORE PUSH1 0x20 PUSH1 0x4 DUP3 ADD MSTORE PUSH1 0x19 PUSH1 0x24 DUP3 ADD MSTORE PUSH32 0x53656C6C657220697320616C726561647920626C6F636B656400000000000000 PUSH1 0x44 DUP3 ADD MSTORE PUSH1 0x64 SWAP1 REVERT JUMPDEST POP DUP1 PUSH1 0x0 MSTORE PUSH1 0x3 PUSH1 0x20 MSTORE PUSH1 0x2 PUSH1 0x40 PUSH1 0x0 KECCAK256 ADD SLOAD ISZERO PUSH2 0x7A2 JUMP JUMPDEST PUSH1 0x40 MLOAD PUSH3 0x461BCD PUSH1 0xE5 SHL DUP2 MSTORE PUSH1 0x20 PUSH1 0x4 DUP3 ADD MSTORE PUSH1 0x27 PUSH1 0x24 DUP3 ADD MSTORE PUSH32 0x596F75206861766520616C7265616479207265706F7274656420746869732070 PUSH1 0x44 DUP3 ADD MSTORE PUSH7 0x75726368617365 PUSH1 0xC8 SHL PUSH1 0x64 DUP3 ADD MSTORE PUSH1 0x84 SWAP1 REVERT JUMPDEST PUSH1 0x64 PUSH1 0x40 MLOAD PUSH3 0x461BCD PUSH1 0xE5 SHL DUP2 MSTORE PUSH1 0x20 PUSH1 0x4 DUP3 ADD MSTORE PUSH1 0x20 PUSH1 0x24 DUP3 ADD MSTORE PUSH32 0x596F7520646964206E6F742063616E63656C2074686973207075726368617365 PUSH1 0x44 DUP3 ADD MSTORE REVERT JUMPDEST PUSH1 0x40 MLOAD PUSH3 0x461BCD PUSH1 0xE5 SHL DUP2 MSTORE PUSH1 0x20 PUSH1 0x4 DUP3 ADD MSTORE PUSH1 0x1E PUSH1 0x24 DUP3 ADD MSTORE PUSH32 0x507572636861736520686173206E6F74206265656E2063616E63656C65640000 PUSH1 0x44 DUP3 ADD MSTORE PUSH1 0x64 SWAP1 REVERT JUMPDEST CALLVALUE PUSH2 0x17C JUMPI PUSH1 0x0 CALLDATASIZE PUSH1 0x3 NOT ADD SLT PUSH2 0x17C JUMPI PUSH1 0x0 SLOAD PUSH1 0x40 MLOAD PUSH1 0x1 PUSH1 0x1 PUSH1 0xA0 SHL SUB SWAP1 SWAP2 AND DUP2 MSTORE PUSH1 0x20 SWAP1 RETURN JUMPDEST CALLVALUE PUSH2 0x17C JUMPI PUSH1 0x20 CALLDATASIZE PUSH1 0x3 NOT ADD SLT PUSH2 0x17C JUMPI PUSH1 0x4 CALLDATALOAD DUP1 PUSH1 0x0 MSTORE PUSH1 0x2 PUSH1 0x20 MSTORE PUSH1 0x40 PUSH1 0x0 KECCAK256 SWAP1 PUSH1 0x6 DUP3 ADD SWAP2 DUP3 SLOAD CALLER PUSH1 0x1 DUP1 PUSH1 0xA0 SHL SUB DUP3 PUSH1 0x10 SHR AND SUB PUSH2 0xCCA JUMPI PUSH1 0xFF AND PUSH2 0xC85 JUMPI PUSH1 0x3 DUP2 ADD SWAP3 DUP4 SLOAD SWAP3 PUSH2 0xBCD PUSH2 0xBC4 PUSH1 0x64 PUSH2 0xBBC PUSH1 0xA SLOAD DUP9 PUSH2 0x2836 JUMP JUMPDEST DIV DUP1 SWAP7 PUSH2 0x2849 JUMP JUMPDEST SWAP5 PUSH1 0xD SLOAD PUSH2 0x2856 JUMP JUMPDEST PUSH1 0xD SSTORE PUSH1 0x1 PUSH1 0xFF NOT DUP4 SLOAD AND OR DUP3 SSTORE PUSH1 0x0 DUP1 DUP1 DUP1 PUSH1 0x4 DUP8 ADD SWAP8 PUSH1 0x1 DUP1 PUSH1 0xA0 SHL SUB DUP10 SLOAD AND DUP3 DUP3 ISZERO PUSH2 0xC7C JUMPI JUMPDEST CALL ISZERO PUSH2 0x40B JUMPI PUSH1 0x1 DUP1 PUSH1 0xA0 SHL SUB DUP5 SLOAD AND PUSH1 0x0 MSTORE PUSH1 0x3 PUSH1 0x20 MSTORE PUSH1 0x2 PUSH1 0x40 PUSH1 0x0 KECCAK256 ADD SWAP2 DUP3 SLOAD SWAP5 PUSH1 0x1 DUP7 ADD DUP1 SWAP7 GT PUSH2 0x3F5 JUMPI PUSH32 0x9620B27BE3795A0CE7111C8E7168631996E44DD6A5F7CC7234C970605378CCC8 SWAP7 PUSH1 0x1 SWAP7 PUSH2 0xC77 SWAP6 SSTORE SLOAD SWAP1 DUP7 DUP1 PUSH1 0xA0 SHL SUB SWAP1 SLOAD AND SWAP2 DUP7 DUP1 PUSH1 0xA0 SHL SUB SWAP1 SLOAD PUSH1 0x10 SHR AND SWAP3 PUSH1 0x40 MLOAD SWAP7 DUP8 SWAP7 ADD SWAP1 DUP7 PUSH2 0x27F5 JUMP JUMPDEST SUB SWAP1 LOG1 STOP JUMPDEST POP PUSH2 0x8FC PUSH2 0xBF7 JUMP JUMPDEST PUSH1 0x40 MLOAD PUSH3 0x461BCD PUSH1 0xE5 SHL DUP2 MSTORE PUSH1 0x20 PUSH1 0x4 DUP3 ADD MSTORE PUSH1 0x17 PUSH1 0x24 DUP3 ADD MSTORE PUSH32 0x50726F6475637420697320616C726561647920736F6C64000000000000000000 PUSH1 0x44 DUP3 ADD MSTORE PUSH1 0x64 SWAP1 REVERT JUMPDEST PUSH1 0x40 MLOAD PUSH3 0x461BCD PUSH1 0xE5 SHL DUP2 MSTORE PUSH1 0x20 PUSH1 0x4 DUP3 ADD MSTORE PUSH1 0x26 PUSH1 0x24 DUP3 ADD MSTORE PUSH32 0x4F6E6C79207468652062757965722063616E20636F6E6669726D207468652070 PUSH1 0x44 DUP3 ADD MSTORE PUSH6 0x185E5B595B9D PUSH1 0xD2 SHL PUSH1 0x64 DUP3 ADD MSTORE PUSH1 0x84 SWAP1 REVERT JUMPDEST CALLVALUE PUSH2 0x17C JUMPI PUSH1 0x20 CALLDATASIZE PUSH1 0x3 NOT ADD SLT PUSH2 0x17C JUMPI PUSH1 0x4 CALLDATALOAD PUSH1 0x0 MSTORE PUSH1 0x2 PUSH1 0x20 MSTORE PUSH1 0x40 PUSH1 0x0 KECCAK256 DUP1 SLOAD PUSH2 0x684 PUSH2 0xD50 PUSH1 0x1 DUP5 ADD PUSH2 0x25BB JUMP JUMPDEST SWAP3 PUSH2 0xD5D PUSH1 0x2 DUP3 ADD PUSH2 0x25BB JUMP JUMPDEST PUSH1 0x3 DUP3 ADD SLOAD PUSH1 0x4 DUP4 ADD SLOAD PUSH2 0xDDB SWAP2 SWAP1 PUSH1 0x1 PUSH1 0x1 PUSH1 0xA0 SHL SUB AND PUSH2 0xD81 PUSH1 0x5 DUP7 ADD PUSH2 0x25BB JUMP JUMPDEST SWAP1 PUSH2 0xDC3 PUSH2 0xD96 PUSH1 0x7 PUSH1 0x6 DUP10 ADD SLOAD SWAP9 ADD PUSH2 0x25BB JUMP JUMPDEST SWAP6 PUSH2 0xDB5 PUSH1 0x40 MLOAD SWAP12 DUP13 SWAP12 DUP13 MSTORE PUSH2 0x140 PUSH1 0x20 DUP14 ADD MSTORE PUSH2 0x140 DUP13 ADD SWAP1 PUSH2 0x265F JUMP JUMPDEST SWAP1 DUP11 DUP3 SUB PUSH1 0x40 DUP13 ADD MSTORE PUSH2 0x265F JUMP JUMPDEST SWAP3 PUSH1 0x60 DUP10 ADD MSTORE PUSH1 0x80 DUP9 ADD MSTORE DUP7 DUP3 SUB PUSH1 0xA0 DUP9 ADD MSTORE PUSH2 0x265F JUMP JUMPDEST PUSH1 0xFF DUP1 DUP5 AND ISZERO ISZERO PUSH1 0xC0 DUP8 ADD MSTORE PUSH1 0x8 DUP5 SWAP1 SHR AND ISZERO ISZERO PUSH1 0xE0 DUP7 ADD MSTORE PUSH1 0x10 SWAP3 SWAP1 SWAP3 SHR PUSH1 0x1 PUSH1 0x1 PUSH1 0xA0 SHL SUB AND PUSH2 0x100 DUP6 ADD MSTORE DUP4 DUP3 SUB PUSH2 0x120 DUP6 ADD MSTORE PUSH2 0x265F JUMP JUMPDEST CALLVALUE PUSH2 0x17C JUMPI PUSH1 0x0 CALLDATASIZE PUSH1 0x3 NOT ADD SLT PUSH2 0x17C JUMPI PUSH2 0xE30 PUSH2 0x2863 JUMP JUMPDEST PUSH1 0x0 DUP1 SLOAD PUSH1 0x1 PUSH1 0x1 PUSH1 0xA0 SHL SUB NOT DUP2 AND DUP3 SSTORE PUSH1 0x1 PUSH1 0x1 PUSH1 0xA0 SHL SUB AND PUSH32 0x8BE0079C531659141344CD1FD0A4F28419497F9722A3DAAFE3B4186F6B6457E0 DUP3 DUP1 LOG3 STOP JUMPDEST CALLVALUE PUSH2 0x17C JUMPI PUSH1 0x20 CALLDATASIZE PUSH1 0x3 NOT ADD SLT PUSH2 0x17C JUMPI PUSH1 0x1 PUSH1 0x1 PUSH1 0xA0 SHL SUB PUSH2 0xE91 PUSH2 0x24FD JUMP JUMPDEST AND PUSH1 0x0 MSTORE PUSH1 0x3 PUSH1 0x20 MSTORE PUSH2 0xEE5 PUSH1 0x40 PUSH1 0x0 KECCAK256 PUSH2 0xEAB DUP2 PUSH2 0x25BB JUMP JUMPDEST SWAP1 PUSH2 0xEB8 PUSH1 0x1 DUP3 ADD PUSH2 0x25BB JUMP JUMPDEST PUSH1 0x2 DUP3 ADD SLOAD SWAP2 PUSH1 0x3 DUP2 ADD SLOAD PUSH2 0xEF3 PUSH1 0x5 PUSH1 0x4 DUP5 ADD SLOAD SWAP4 ADD SLOAD SWAP4 PUSH1 0x40 MLOAD SWAP8 DUP9 SWAP8 PUSH1 0xC0 DUP10 MSTORE PUSH1 0xC0 DUP10 ADD SWAP1 PUSH2 0x265F JUMP JUMPDEST SWAP1 DUP8 DUP3 SUB PUSH1 0x20 DUP10 ADD MSTORE PUSH2 0x265F JUMP JUMPDEST SWAP4 PUSH1 0x40 DUP7 ADD MSTORE PUSH1 0x60 DUP6 ADD MSTORE PUSH1 0x80 DUP5 ADD MSTORE PUSH1 0xA0 DUP4 ADD MSTORE SUB SWAP1 RETURN JUMPDEST CALLVALUE PUSH2 0x17C JUMPI PUSH1 0x20 CALLDATASIZE PUSH1 0x3 NOT ADD SLT PUSH2 0x17C JUMPI PUSH1 0x1 PUSH1 0x1 PUSH1 0xA0 SHL SUB PUSH2 0xF2D PUSH2 0x24FD JUMP JUMPDEST AND PUSH1 0x0 MSTORE PUSH1 0x4 PUSH1 0x20 MSTORE PUSH1 0x40 PUSH1 0x0 KECCAK256 PUSH2 0xF50 PUSH1 0x1 PUSH2 0xF49 DUP4 PUSH2 0x25BB JUMP JUMPDEST SWAP3 ADD PUSH2 0x25BB JUMP JUMPDEST SWAP1 PUSH2 0x684 PUSH1 0x40 MLOAD SWAP3 DUP4 SWAP3 DUP4 PUSH2 0x26F6 JUMP JUMPDEST CALLVALUE PUSH2 0x17C JUMPI PUSH1 0x0 CALLDATASIZE PUSH1 0x3 NOT ADD SLT PUSH2 0x17C JUMPI PUSH1 0x20 PUSH1 0xD SLOAD PUSH1 0x40 MLOAD SWAP1 DUP2 MSTORE RETURN JUMPDEST CALLVALUE PUSH2 0x17C JUMPI PUSH1 0x0 CALLDATASIZE PUSH1 0x3 NOT ADD SLT PUSH2 0x17C JUMPI PUSH1 0x20 PUSH1 0xC SLOAD PUSH1 0x40 MLOAD SWAP1 DUP2 MSTORE RETURN JUMPDEST CALLVALUE PUSH2 0x17C JUMPI PUSH1 0x0 CALLDATASIZE PUSH1 0x3 NOT ADD SLT PUSH2 0x17C JUMPI PUSH2 0xFB5 PUSH2 0x2863 JUMP JUMPDEST PUSH1 0x0 DUP1 SLOAD PUSH1 0xD SLOAD DUP3 SWAP2 DUP3 SWAP2 DUP3 SWAP2 PUSH1 0x1 PUSH1 0x1 PUSH1 0xA0 SHL SUB AND DUP3 DUP3 ISZERO PUSH2 0xFE0 JUMPI JUMPDEST CALL ISZERO PUSH2 0x40B JUMPI PUSH1 0x0 PUSH1 0xD SSTORE STOP JUMPDEST POP PUSH2 0x8FC PUSH2 0xFD3 JUMP JUMPDEST PUSH1 0x20 CALLDATASIZE PUSH1 0x3 NOT ADD SLT PUSH2 0x17C JUMPI PUSH1 0x4 CALLDATALOAD DUP1 PUSH1 0x0 MSTORE PUSH1 0x2 PUSH1 0x20 MSTORE PUSH1 0x40 PUSH1 0x0 KECCAK256 SWAP1 PUSH1 0x1 DUP1 PUSH1 0xA0 SHL SUB PUSH1 0x4 DUP4 ADD SLOAD AND SWAP1 PUSH2 0x102A DUP4 SLOAD DUP1 ISZERO ISZERO SWAP1 DUP2 PUSH2 0x118B JUMPI JUMPDEST POP PUSH2 0x27B0 JUMP JUMPDEST PUSH1 0x3 DUP4 ADD SWAP3 DUP4 SLOAD CALLVALUE SUB PUSH2 0x1146 JUMPI PUSH1 0x6 DUP2 ADD SWAP1 DUP2 SLOAD SWAP5 PUSH1 0xFF DUP7 PUSH1 0x8 SHR AND PUSH2 0x1101 JUMPI CALLER DUP6 EQ PUSH2 0x10B0 JUMPI PUSH2 0x100 PUSH1 0x1 PUSH1 0xB0 SHL SUB NOT SWAP1 SWAP6 AND CALLER PUSH1 0x10 SHL PUSH3 0x10000 PUSH1 0x1 PUSH1 0xB0 SHL SUB AND OR PUSH2 0x100 OR SWAP1 SWAP2 SSTORE PUSH32 0x64F41258F3D51A589CEA8504D1F51403F46583535A3E84E2CBE3F8D50674D00B SWAP4 PUSH2 0xC77 SWAP2 SWAP1 SLOAD SWAP4 PUSH1 0x40 MLOAD SWAP5 DUP6 SWAP5 PUSH1 0x1 CALLER SWAP5 ADD SWAP1 DUP7 PUSH2 0x27F5 JUMP JUMPDEST PUSH1 0x40 MLOAD PUSH3 0x461BCD PUSH1 0xE5 SHL DUP2 MSTORE PUSH1 0x20 PUSH1 0x4 DUP3 ADD MSTORE PUSH1 0x23 PUSH1 0x24 DUP3 ADD MSTORE PUSH32 0x53656C6C65722063616E6E6F7420627579207468656972206F776E2070726F64 PUSH1 0x44 DUP3 ADD MSTORE PUSH3 0x1D58DD PUSH1 0xEA SHL PUSH1 0x64 DUP3 ADD MSTORE PUSH1 0x84 SWAP1 REVERT JUMPDEST PUSH1 0x40 MLOAD PUSH3 0x461BCD PUSH1 0xE5 SHL DUP2 MSTORE PUSH1 0x20 PUSH1 0x4 DUP3 ADD MSTORE PUSH1 0x1B PUSH1 0x24 DUP3 ADD MSTORE PUSH32 0x50726F6475637420697320616C7265616479207061696420666F720000000000 PUSH1 0x44 DUP3 ADD MSTORE PUSH1 0x64 SWAP1 REVERT JUMPDEST PUSH1 0x40 MLOAD PUSH3 0x461BCD PUSH1 0xE5 SHL DUP2 MSTORE PUSH1 0x20 PUSH1 0x4 DUP3 ADD MSTORE PUSH1 0x1A PUSH1 0x24 DUP3 ADD MSTORE PUSH32 0x496E636F72726563742045746865722076616C75652073656E74000000000000 PUSH1 0x44 DUP3 ADD MSTORE PUSH1 0x64 SWAP1 REVERT JUMPDEST SWAP1 POP PUSH1 0x1 SLOAD LT ISZERO DUP6 PUSH2 0x1024 JUMP JUMPDEST CALLVALUE PUSH2 0x17C JUMPI PUSH1 0x20 CALLDATASIZE PUSH1 0x3 NOT ADD SLT PUSH2 0x17C JUMPI PUSH1 0x60 PUSH1 0x20 PUSH1 0x40 MLOAD PUSH2 0x11B9 DUP2 PUSH2 0x257F JUMP JUMPDEST DUP3 DUP2 MSTORE ADD MSTORE PUSH1 0x4 CALLDATALOAD PUSH1 0x0 MSTORE PUSH1 0x2 PUSH1 0x20 MSTORE PUSH1 0x40 PUSH1 0x0 KECCAK256 PUSH2 0x11E2 DUP2 SLOAD DUP1 ISZERO ISZERO SWAP1 DUP2 PUSH2 0x1330 JUMPI POP PUSH2 0x27B0 JUMP JUMPDEST PUSH1 0x6 DUP2 ADD SLOAD CALLER PUSH1 0x10 DUP3 SWAP1 SHR PUSH1 0x1 PUSH1 0x1 PUSH1 0xA0 SHL SUB AND SUB PUSH2 0x12DC JUMPI PUSH1 0x8 SHR PUSH1 0xFF AND ISZERO PUSH2 0x127F JUMPI PUSH1 0x4 PUSH1 0x1 DUP1 PUSH1 0xA0 SHL SUB SWAP2 ADD SLOAD AND PUSH1 0x0 MSTORE PUSH1 0x4 PUSH1 0x20 MSTORE PUSH2 0x126C PUSH1 0x40 PUSH1 0x0 KECCAK256 PUSH2 0x684 PUSH2 0x1249 PUSH1 0x1 PUSH1 0x40 MLOAD SWAP4 PUSH2 0x1238 DUP6 PUSH2 0x257F JUMP JUMPDEST PUSH2 0x1241 DUP2 PUSH2 0x25BB JUMP JUMPDEST DUP6 MSTORE ADD PUSH2 0x25BB JUMP JUMPDEST PUSH1 0x20 DUP4 ADD SWAP1 DUP2 MSTORE PUSH1 0x40 MLOAD SWAP4 DUP5 SWAP4 PUSH1 0x20 DUP6 MSTORE MLOAD PUSH1 0x40 PUSH1 0x20 DUP7 ADD MSTORE PUSH1 0x60 DUP6 ADD SWAP1 PUSH2 0x265F JUMP JUMPDEST SWAP1 MLOAD DUP4 DUP3 SUB PUSH1 0x1F NOT ADD PUSH1 0x40 DUP6 ADD MSTORE PUSH2 0x265F JUMP JUMPDEST PUSH1 0x40 MLOAD PUSH3 0x461BCD PUSH1 0xE5 SHL DUP2 MSTORE PUSH1 0x20 PUSH1 0x4 DUP3 ADD MSTORE PUSH1 0x2F PUSH1 0x24 DUP3 ADD MSTORE PUSH32 0x50726F64756374206D757374206265207061696420666F7220746F2076696577 PUSH1 0x44 DUP3 ADD MSTORE PUSH15 0x2073656C6C65722064657461696C73 PUSH1 0x88 SHL PUSH1 0x64 DUP3 ADD MSTORE PUSH1 0x84 SWAP1 REVERT JUMPDEST PUSH1 0x40 MLOAD PUSH3 0x461BCD PUSH1 0xE5 SHL DUP2 MSTORE PUSH1 0x20 PUSH1 0x4 DUP3 ADD MSTORE PUSH1 0x26 PUSH1 0x24 DUP3 ADD MSTORE PUSH32 0x4F6E6C79207468652062757965722063616E20766965772073656C6C65722064 PUSH1 0x44 DUP3 ADD MSTORE PUSH6 0x657461696C73 PUSH1 0xD0 SHL PUSH1 0x64 DUP3 ADD MSTORE PUSH1 0x84 SWAP1 REVERT JUMPDEST SWAP1 POP PUSH1 0x1 SLOAD LT ISZERO DUP4 PUSH2 0x1024 JUMP JUMPDEST CALLVALUE PUSH2 0x17C JUMPI PUSH1 0x80 CALLDATASIZE PUSH1 0x3 NOT ADD SLT PUSH2 0x17C JUMPI PUSH1 0x4 CALLDATALOAD PUSH1 0x1 PUSH1 0x1 PUSH1 0x40 SHL SUB DUP2 GT PUSH2 0x17C JUMPI PUSH2 0x136D SWAP1 CALLDATASIZE SWAP1 PUSH1 0x4 ADD PUSH2 0x26A0 JUMP JUMPDEST PUSH1 0x24 CALLDATALOAD PUSH1 0x1 PUSH1 0x1 PUSH1 0x40 SHL SUB DUP2 GT PUSH2 0x17C JUMPI PUSH2 0x138C SWAP1 CALLDATASIZE SWAP1 PUSH1 0x4 ADD PUSH2 0x26A0 JUMP JUMPDEST PUSH1 0x44 CALLDATALOAD PUSH1 0x1 PUSH1 0x1 PUSH1 0x40 SHL SUB DUP2 GT PUSH2 0x17C JUMPI PUSH2 0x13AB SWAP1 CALLDATASIZE SWAP1 PUSH1 0x4 ADD PUSH2 0x26A0 JUMP JUMPDEST SWAP2 PUSH1 0x64 CALLDATALOAD PUSH1 0x1 PUSH1 0x1 PUSH1 0x40 SHL SUB DUP2 GT PUSH2 0x17C JUMPI PUSH2 0x13CB SWAP1 CALLDATASIZE SWAP1 PUSH1 0x4 ADD PUSH2 0x26A0 JUMP JUMPDEST SWAP2 DUP2 MLOAD ISZERO PUSH2 0x1A5A JUMPI DUP1 MLOAD ISZERO PUSH2 0x1A15 JUMPI DUP4 MLOAD ISZERO PUSH2 0x19D9 JUMPI DUP3 MLOAD ISZERO PUSH2 0x1994 JUMPI CALLER PUSH1 0x0 MSTORE PUSH1 0x3 PUSH1 0x20 MSTORE PUSH2 0x13FF PUSH1 0x40 PUSH1 0x0 KECCAK256 SLOAD PUSH2 0x2529 JUMP JUMPDEST PUSH2 0x194F JUMPI PUSH1 0x40 MLOAD SWAP4 PUSH1 0xC0 DUP6 ADD DUP6 DUP2 LT PUSH1 0x1 PUSH1 0x1 PUSH1 0x40 SHL SUB DUP3 GT OR PUSH2 0x9E2 JUMPI PUSH1 0x40 MSTORE DUP3 DUP6 MSTORE PUSH1 0x20 DUP6 ADD SWAP5 DUP3 DUP7 MSTORE PUSH1 0x40 DUP2 ADD PUSH1 0x0 DUP2 MSTORE PUSH1 0x60 DUP3 ADD PUSH1 0x0 DUP2 MSTORE PUSH1 0x80 DUP4 ADD SWAP1 PUSH1 0x0 DUP3 MSTORE PUSH1 0xA0 DUP5 ADD SWAP3 PUSH1 0x0 DUP5 MSTORE CALLER PUSH1 0x0 MSTORE PUSH1 0x3 PUSH1 0x20 MSTORE PUSH1 0x40 PUSH1 0x0 KECCAK256 SWAP5 MLOAD DUP1 MLOAD SWAP1 PUSH1 0x1 PUSH1 0x1 PUSH1 0x40 SHL SUB DUP3 GT PUSH2 0x9E2 JUMPI DUP2 SWAP1 PUSH2 0x147A DUP9 SLOAD PUSH2 0x2529 JUMP JUMPDEST PUSH1 0x1F DUP2 GT PUSH2 0x18FC JUMPI JUMPDEST POP PUSH1 0x20 SWAP1 PUSH1 0x1F DUP4 GT PUSH1 0x1 EQ PUSH2 0x1897 JUMPI PUSH1 0x0 SWAP3 PUSH2 0x188C JUMPI JUMPDEST POP POP DUP2 PUSH1 0x1 SHL SWAP2 PUSH1 0x0 NOT SWAP1 PUSH1 0x3 SHL SHR NOT AND OR DUP6 SSTORE JUMPDEST PUSH1 0x1 DUP6 ADD SWAP10 MLOAD SWAP10 DUP11 MLOAD PUSH1 0x1 PUSH1 0x1 PUSH1 0x40 SHL SUB DUP2 GT PUSH2 0x9E2 JUMPI PUSH2 0x14D0 DUP3 SLOAD PUSH2 0x2529 JUMP JUMPDEST PUSH1 0x1F DUP2 GT PUSH2 0x1844 JUMPI JUMPDEST POP PUSH1 0x20 PUSH1 0x1F DUP3 GT PUSH1 0x1 EQ PUSH2 0x17D2 JUMPI DUP2 SWAP1 PUSH1 0x5 SWAP9 SWAP10 SWAP11 SWAP12 SWAP13 SWAP14 PUSH1 0x0 SWAP3 PUSH2 0x17C7 JUMPI JUMPDEST POP POP DUP2 PUSH1 0x1 SHL SWAP2 PUSH1 0x0 NOT SWAP1 PUSH1 0x3 SHL SHR NOT AND OR SWAP1 SSTORE JUMPDEST MLOAD PUSH1 0x2 DUP7 ADD SSTORE MLOAD PUSH1 0x3 DUP6 ADD SSTORE MLOAD PUSH1 0x4 DUP5 ADD SSTORE MLOAD SWAP2 ADD SSTORE PUSH1 0x40 MLOAD SWAP1 PUSH2 0x1531 DUP3 PUSH2 0x257F JUMP JUMPDEST DUP2 MSTORE PUSH1 0x20 DUP2 ADD SWAP4 DUP5 MSTORE CALLER PUSH1 0x0 MSTORE PUSH1 0x4 PUSH1 0x20 MSTORE PUSH1 0x40 PUSH1 0x0 KECCAK256 SWAP1 MLOAD DUP1 MLOAD SWAP1 PUSH1 0x1 PUSH1 0x1 PUSH1 0x40 SHL SUB DUP3 GT PUSH2 0x9E2 JUMPI PUSH2 0x1565 DUP4 SLOAD PUSH2 0x2529 JUMP JUMPDEST PUSH1 0x1F DUP2 GT PUSH2 0x177F JUMPI JUMPDEST POP PUSH1 0x20 SWAP1 PUSH1 0x1F DUP4 GT PUSH1 0x1 EQ PUSH2 0x1715 JUMPI PUSH1 0x1 SWAP4 SWAP3 SWAP2 PUSH1 0x0 SWAP2 DUP4 PUSH2 0x170A JUMPI JUMPDEST POP POP PUSH1 0x0 NOT PUSH1 0x3 DUP4 SWAP1 SHL SHR NOT AND SWAP1 DUP4 SHL OR DUP2 SSTORE JUMPDEST ADD SWAP3 MLOAD SWAP3 DUP4 MLOAD PUSH1 0x1 PUSH1 0x1 PUSH1 0x40 SHL SUB DUP2 GT PUSH2 0x9E2 JUMPI PUSH2 0x15BD DUP3 SLOAD PUSH2 0x2529 JUMP JUMPDEST PUSH1 0x1F DUP2 GT PUSH2 0x16C2 JUMPI JUMPDEST POP PUSH1 0x20 PUSH1 0x1F DUP3 GT PUSH1 0x1 EQ PUSH2 0x1635 JUMPI SWAP1 DUP1 PUSH2 0x8FD SWAP5 SWAP4 SWAP3 PUSH32 0x29A886814235A877CF2FF5DF3C674A946B17782BF260CA120B7B951A6D35CC6 SWAP7 SWAP8 PUSH1 0x0 SWAP3 PUSH2 0x162A JUMPI JUMPDEST POP POP DUP2 PUSH1 0x1 SHL SWAP2 PUSH1 0x0 NOT SWAP1 PUSH1 0x3 SHL SHR NOT AND OR SWAP1 SSTORE JUMPDEST PUSH1 0x40 MLOAD SWAP2 DUP3 SWAP2 CALLER SWAP6 DUP4 PUSH2 0x26F6 JUMP JUMPDEST ADD MLOAD SWAP1 POP DUP8 DUP1 PUSH2 0x1607 JUMP JUMPDEST PUSH1 0x1F NOT DUP3 AND SWAP6 DUP4 PUSH1 0x0 MSTORE DUP2 PUSH1 0x0 KECCAK256 SWAP7 PUSH1 0x0 JUMPDEST DUP2 DUP2 LT PUSH2 0x16AA JUMPI POP SWAP7 PUSH1 0x1 SWAP3 DUP5 SWAP3 PUSH2 0x8FD SWAP8 SWAP7 SWAP6 PUSH32 0x29A886814235A877CF2FF5DF3C674A946B17782BF260CA120B7B951A6D35CC6 SWAP10 SWAP11 LT PUSH2 0x1691 JUMPI JUMPDEST POP POP POP DUP2 SHL ADD SWAP1 SSTORE PUSH2 0x161C JUMP JUMPDEST ADD MLOAD PUSH1 0x0 NOT PUSH1 0xF8 DUP5 PUSH1 0x3 SHL AND SHR NOT AND SWAP1 SSTORE DUP8 DUP1 DUP1 PUSH2 0x1684 JUMP JUMPDEST DUP4 DUP4 ADD MLOAD DUP10 SSTORE PUSH1 0x1 SWAP1 SWAP9 ADD SWAP8 PUSH1 0x20 SWAP4 DUP5 ADD SWAP4 ADD PUSH2 0x1647 JUMP JUMPDEST DUP3 PUSH1 0x0 MSTORE PUSH1 0x20 PUSH1 0x0 KECCAK256 PUSH1 0x1F DUP4 ADD PUSH1 0x5 SHR DUP2 ADD SWAP2 PUSH1 0x20 DUP5 LT PUSH2 0x1700 JUMPI JUMPDEST PUSH1 0x1F ADD PUSH1 0x5 SHR ADD SWAP1 JUMPDEST DUP2 DUP2 LT PUSH2 0x16F4 JUMPI POP PUSH2 0x15C6 JUMP JUMPDEST PUSH1 0x0 DUP2 SSTORE PUSH1 0x1 ADD PUSH2 0x16E7 JUMP JUMPDEST SWAP1 SWAP2 POP DUP2 SWAP1 PUSH2 0x16DE JUMP JUMPDEST ADD MLOAD SWAP1 POP DUP8 DUP1 PUSH2 0x158B JUMP JUMPDEST SWAP1 PUSH1 0x1F NOT DUP4 AND SWAP2 DUP5 PUSH1 0x0 MSTORE DUP2 PUSH1 0x0 KECCAK256 SWAP3 PUSH1 0x0 JUMPDEST DUP2 DUP2 LT PUSH2 0x1767 JUMPI POP SWAP2 PUSH1 0x1 SWAP6 SWAP5 SWAP3 SWAP2 DUP4 DUP8 SWAP6 SWAP4 LT PUSH2 0x174E JUMPI JUMPDEST POP POP POP DUP2 SHL ADD DUP2 SSTORE PUSH2 0x159F JUMP JUMPDEST ADD MLOAD PUSH1 0x0 NOT PUSH1 0xF8 DUP5 PUSH1 0x3 SHL AND SHR NOT AND SWAP1 SSTORE DUP8 DUP1 DUP1 PUSH2 0x1741 JUMP JUMPDEST SWAP3 SWAP4 PUSH1 0x20 PUSH1 0x1 DUP2 SWAP3 DUP8 DUP7 ADD MLOAD DUP2 SSTORE ADD SWAP6 ADD SWAP4 ADD PUSH2 0x1728 JUMP JUMPDEST DUP4 PUSH1 0x0 MSTORE PUSH1 0x20 PUSH1 0x0 KECCAK256 PUSH1 0x1F DUP5 ADD PUSH1 0x5 SHR DUP2 ADD SWAP2 PUSH1 0x20 DUP6 LT PUSH2 0x17BD JUMPI JUMPDEST PUSH1 0x1F ADD PUSH1 0x5 SHR ADD SWAP1 JUMPDEST DUP2 DUP2 LT PUSH2 0x17B1 JUMPI POP PUSH2 0x156E JUMP JUMPDEST PUSH1 0x0 DUP2 SSTORE PUSH1 0x1 ADD PUSH2 0x17A4 JUMP JUMPDEST SWAP1 SWAP2 POP DUP2 SWAP1 PUSH2 0x179B JUMP JUMPDEST ADD MLOAD SWAP1 POP DUP14 DUP1 PUSH2 0x14F9 JUMP JUMPDEST PUSH1 0x1F NOT DUP3 AND SWAP13 DUP4 PUSH1 0x0 MSTORE DUP2 PUSH1 0x0 KECCAK256 SWAP14 PUSH1 0x0 JUMPDEST DUP2 DUP2 LT PUSH2 0x1827 JUMPI POP SWAP2 PUSH1 0x5 SWAP10 SWAP11 SWAP12 SWAP13 SWAP14 SWAP15 SWAP2 DUP5 PUSH1 0x1 SWAP6 SWAP5 LT PUSH2 0x180E JUMPI JUMPDEST POP POP POP DUP2 SHL ADD SWAP1 SSTORE PUSH2 0x150E JUMP JUMPDEST ADD MLOAD PUSH1 0x0 NOT PUSH1 0xF8 DUP5 PUSH1 0x3 SHL AND SHR NOT AND SWAP1 SSTORE DUP14 DUP1 DUP1 PUSH2 0x1801 JUMP JUMPDEST SWAP2 SWAP15 DUP16 PUSH1 0x1 PUSH1 0x20 SWAP3 DUP7 DUP5 SWAP4 ADD MLOAD DUP2 SSTORE ADD SWAP5 ADD SWAP3 ADD SWAP15 SWAP2 SWAP3 SWAP15 PUSH2 0x17E4 JUMP JUMPDEST DUP3 PUSH1 0x0 MSTORE PUSH1 0x20 PUSH1 0x0 KECCAK256 PUSH1 0x1F DUP4 ADD PUSH1 0x5 SHR DUP2 ADD SWAP2 PUSH1 0x20 DUP5 LT PUSH2 0x1882 JUMPI JUMPDEST PUSH1 0x1F ADD PUSH1 0x5 SHR ADD SWAP1 JUMPDEST DUP2 DUP2 LT PUSH2 0x1876 JUMPI POP PUSH2 0x14D9 JUMP JUMPDEST PUSH1 0x0 DUP2 SSTORE PUSH1 0x1 ADD PUSH2 0x1869 JUMP JUMPDEST SWAP1 SWAP2 POP DUP2 SWAP1 PUSH2 0x1860 JUMP JUMPDEST ADD MLOAD SWAP1 POP DUP13 DUP1 PUSH2 0x149A JUMP JUMPDEST PUSH1 0x0 DUP10 DUP2 MSTORE DUP3 DUP2 KECCAK256 SWAP4 POP PUSH1 0x1F NOT DUP6 AND SWAP1 JUMPDEST DUP2 DUP2 LT PUSH2 0x18E4 JUMPI POP SWAP1 DUP5 PUSH1 0x1 SWAP6 SWAP5 SWAP4 SWAP3 LT PUSH2 0x18CB JUMPI JUMPDEST POP POP POP DUP2 SHL ADD DUP6 SSTORE PUSH2 0x14AF JUMP JUMPDEST ADD MLOAD PUSH1 0x0 NOT PUSH1 0xF8 DUP5 PUSH1 0x3 SHL AND SHR NOT AND SWAP1 SSTORE DUP13 DUP1 DUP1 PUSH2 0x18BE JUMP JUMPDEST SWAP3 SWAP4 PUSH1 0x20 PUSH1 0x1 DUP2 SWAP3 DUP8 DUP7 ADD MLOAD DUP2 SSTORE ADD SWAP6 ADD SWAP4 ADD PUSH2 0x18A8 JUMP JUMPDEST SWAP1 SWAP2 POP DUP8 PUSH1 0x0 MSTORE PUSH1 0x20 PUSH1 0x0 KECCAK256 PUSH1 0x1F DUP5 ADD PUSH1 0x5 SHR DUP2 ADD SWAP2 PUSH1 0x20 DUP6 LT PUSH2 0x1945 JUMPI JUMPDEST SWAP1 PUSH1 0x1F DUP6 SWAP5 SWAP4 SWAP3 ADD PUSH1 0x5 SHR ADD SWAP1 JUMPDEST DUP2 DUP2 LT PUSH2 0x1936 JUMPI POP PUSH2 0x1483 JUMP JUMPDEST PUSH1 0x0 DUP2 SSTORE DUP5 SWAP4 POP PUSH1 0x1 ADD PUSH2 0x1929 JUMP JUMPDEST SWAP1 SWAP2 POP DUP2 SWAP1 PUSH2 0x191B JUMP JUMPDEST PUSH1 0x40 MLOAD PUSH3 0x461BCD PUSH1 0xE5 SHL DUP2 MSTORE PUSH1 0x20 PUSH1 0x4 DUP3 ADD MSTORE PUSH1 0x19 PUSH1 0x24 DUP3 ADD MSTORE PUSH32 0x53656C6C657220616C7265616479207265676973746572656400000000000000 PUSH1 0x44 DUP3 ADD MSTORE PUSH1 0x64 SWAP1 REVERT JUMPDEST PUSH1 0x40 MLOAD PUSH3 0x461BCD PUSH1 0xE5 SHL DUP2 MSTORE PUSH1 0x20 PUSH1 0x4 DUP3 ADD MSTORE PUSH1 0x18 PUSH1 0x24 DUP3 ADD MSTORE PUSH32 0x50686F6E65206E756D6265722069732072657175697265640000000000000000 PUSH1 0x44 DUP3 ADD MSTORE PUSH1 0x64 SWAP1 REVERT JUMPDEST PUSH1 0x40 MLOAD PUSH3 0x461BCD PUSH1 0xE5 SHL DUP2 MSTORE PUSH1 0x20 PUSH1 0x4 DUP3 ADD MSTORE PUSH1 0x14 PUSH1 0x24 DUP3 ADD MSTORE PUSH20 0x131BD8D85D1A5BDB881A5CC81C995C5D5A5C9959 PUSH1 0x62 SHL PUSH1 0x44 DUP3 ADD MSTORE PUSH1 0x64 SWAP1 REVERT JUMPDEST PUSH1 0x40 MLOAD PUSH3 0x461BCD PUSH1 0xE5 SHL DUP2 MSTORE PUSH1 0x20 PUSH1 0x4 DUP3 ADD MSTORE PUSH1 0x17 PUSH1 0x24 DUP3 ADD MSTORE PUSH32 0x50726F66696C6520555249206973207265717569726564000000000000000000 PUSH1 0x44 DUP3 ADD MSTORE PUSH1 0x64 SWAP1 REVERT JUMPDEST PUSH1 0x40 MLOAD PUSH3 0x461BCD PUSH1 0xE5 SHL DUP2 MSTORE PUSH1 0x20 PUSH1 0x4 DUP3 ADD MSTORE PUSH1 0x17 PUSH1 0x24 DUP3 ADD MSTORE PUSH32 0x53656C6C6572206E616D65206973207265717569726564000000000000000000 PUSH1 0x44 DUP3 ADD MSTORE PUSH1 0x64 SWAP1 REVERT JUMPDEST CALLVALUE PUSH2 0x17C JUMPI PUSH1 0x0 CALLDATASIZE PUSH1 0x3 NOT ADD SLT PUSH2 0x17C JUMPI PUSH1 0x20 PUSH1 0xB SLOAD PUSH1 0x40 MLOAD SWAP1 DUP2 MSTORE RETURN JUMPDEST CALLVALUE PUSH2 0x17C JUMPI PUSH1 0x80 CALLDATASIZE PUSH1 0x3 NOT ADD SLT PUSH2 0x17C JUMPI PUSH1 0x4 CALLDATALOAD PUSH1 0x1 PUSH1 0x1 PUSH1 0x40 SHL SUB DUP2 GT PUSH2 0x17C JUMPI PUSH2 0x1AED SWAP1 CALLDATASIZE SWAP1 PUSH1 0x4 ADD PUSH2 0x26A0 JUMP JUMPDEST PUSH1 0x24 CALLDATALOAD PUSH1 0x1 PUSH1 0x1 PUSH1 0x40 SHL SUB DUP2 GT PUSH2 0x17C JUMPI PUSH2 0x1B0C SWAP1 CALLDATASIZE SWAP1 PUSH1 0x4 ADD PUSH2 0x26A0 JUMP JUMPDEST SWAP1 PUSH1 0x44 CALLDATALOAD SWAP2 PUSH1 0x64 CALLDATALOAD PUSH1 0x1 PUSH1 0x1 PUSH1 0x40 SHL SUB DUP2 GT PUSH2 0x17C JUMPI PUSH2 0x1B30 SWAP1 CALLDATASIZE SWAP1 PUSH1 0x4 ADD PUSH2 0x26A0 JUMP JUMPDEST DUP3 MLOAD ISZERO PUSH2 0x22AD JUMPI DUP2 MLOAD ISZERO PUSH2 0x2268 JUMPI DUP4 ISZERO PUSH2 0x2213 JUMPI CALLER PUSH1 0x0 MSTORE PUSH1 0x6 PUSH1 0x20 MSTORE PUSH1 0xFF PUSH1 0x40 PUSH1 0x0 KECCAK256 SLOAD AND PUSH2 0x21DA JUMPI CALLER PUSH1 0x0 MSTORE PUSH1 0x3 PUSH1 0x20 MSTORE PUSH2 0x1B71 PUSH1 0x40 PUSH1 0x0 KECCAK256 SLOAD PUSH2 0x2529 JUMP JUMPDEST ISZERO PUSH2 0x219D JUMPI PUSH2 0x1B81 PUSH1 0x1 SLOAD PUSH2 0x271E JUMP JUMPDEST DUP1 PUSH1 0x1 SSTORE CALLER PUSH1 0x0 MSTORE PUSH1 0x3 PUSH1 0x20 MSTORE PUSH1 0x40 PUSH1 0x0 KECCAK256 PUSH1 0x40 MLOAD SWAP2 PUSH2 0x1BA0 DUP4 PUSH2 0x2563 JUMP JUMPDEST DUP1 DUP4 MSTORE PUSH1 0x20 DUP4 ADD DUP7 DUP2 MSTORE PUSH1 0x40 DUP5 ADD SWAP3 DUP7 DUP5 MSTORE PUSH1 0x60 DUP6 ADD SWAP1 DUP10 DUP3 MSTORE PUSH2 0x1BCA PUSH1 0x80 DUP8 ADD SWAP2 CALLER DUP4 MSTORE PUSH2 0x25BB JUMP JUMPDEST SWAP2 PUSH1 0xA0 DUP8 ADD SWAP3 DUP4 MSTORE PUSH1 0xC0 DUP8 ADD SWAP6 PUSH1 0x0 DUP8 MSTORE PUSH1 0xE0 DUP9 ADD SWAP5 PUSH1 0x0 DUP7 MSTORE PUSH2 0x100 DUP10 ADD SWAP7 PUSH1 0x0 DUP9 MSTORE PUSH2 0x120 DUP11 ADD SWAP11 DUP12 MSTORE PUSH1 0x0 MSTORE PUSH1 0x2 PUSH1 0x20 MSTORE PUSH1 0x40 PUSH1 0x0 KECCAK256 SWAP9 MLOAD DUP10 SSTORE PUSH1 0x1 DUP10 ADD SWAP1 MLOAD DUP1 MLOAD SWAP1 PUSH1 0x1 PUSH1 0x1 PUSH1 0x40 SHL SUB DUP3 GT PUSH2 0x9E2 JUMPI DUP2 SWAP1 PUSH2 0x1C2A DUP5 SLOAD PUSH2 0x2529 JUMP JUMPDEST PUSH1 0x1F DUP2 GT PUSH2 0x214A JUMPI JUMPDEST POP PUSH1 0x20 SWAP1 PUSH1 0x1F DUP4 GT PUSH1 0x1 EQ PUSH2 0x20E5 JUMPI PUSH1 0x0 SWAP3 PUSH2 0x20DA JUMPI JUMPDEST POP POP DUP2 PUSH1 0x1 SHL SWAP2 PUSH1 0x0 NOT SWAP1 PUSH1 0x3 SHL SHR NOT AND OR SWAP1 SSTORE JUMPDEST MLOAD DUP1 MLOAD PUSH1 0x2 DUP10 ADD SWAP2 PUSH1 0x1 PUSH1 0x1 PUSH1 0x40 SHL SUB DUP3 GT PUSH2 0x9E2 JUMPI DUP2 SWAP1 PUSH2 0x1C81 DUP5 SLOAD PUSH2 0x2529 JUMP JUMPDEST PUSH1 0x1F DUP2 GT PUSH2 0x2087 JUMPI JUMPDEST POP PUSH1 0x20 SWAP1 PUSH1 0x1F DUP4 GT PUSH1 0x1 EQ PUSH2 0x2022 JUMPI PUSH1 0x0 SWAP3 PUSH2 0x2017 JUMPI JUMPDEST POP POP DUP2 PUSH1 0x1 SHL SWAP2 PUSH1 0x0 NOT SWAP1 PUSH1 0x3 SHL SHR NOT AND OR SWAP1 SSTORE JUMPDEST MLOAD PUSH1 0x3 DUP8 ADD SSTORE MLOAD PUSH1 0x4 DUP7 ADD DUP1 SLOAD PUSH1 0x1 PUSH1 0x1 PUSH1 0xA0 SHL SUB NOT AND PUSH1 0x1 PUSH1 0x1 PUSH1 0xA0 SHL SUB SWAP3 SWAP1 SWAP3 AND SWAP2 SWAP1 SWAP2 OR SWAP1 SSTORE MLOAD DUP1 MLOAD PUSH1 0x5 DUP7 ADD SWAP2 PUSH1 0x1 PUSH1 0x1 PUSH1 0x40 SHL SUB DUP3 GT PUSH2 0x9E2 JUMPI PUSH2 0x1CFF DUP4 SLOAD PUSH2 0x2529 JUMP JUMPDEST PUSH1 0x1F DUP2 GT PUSH2 0x1FCF JUMPI JUMPDEST POP PUSH1 0x20 SWAP1 PUSH1 0x1F DUP4 GT PUSH1 0x1 EQ PUSH2 0x1F5E JUMPI SWAP2 DUP1 PUSH2 0x1D88 SWAP7 SWAP5 SWAP3 PUSH1 0x7 SWAP10 SWAP9 SWAP7 SWAP5 PUSH1 0x0 SWAP3 PUSH2 0x1F53 JUMPI JUMPDEST POP POP DUP2 PUSH1 0x1 SHL SWAP2 PUSH1 0x0 NOT SWAP1 PUSH1 0x3 SHL SHR NOT AND OR SWAP1 SSTORE JUMPDEST SWAP2 MLOAD PUSH1 0x6 DUP6 ADD DUP1 SLOAD SWAP4 MLOAD SWAP3 MLOAD PUSH3 0x10000 PUSH1 0x1 PUSH1 0xB0 SHL SUB PUSH1 0x10 SWAP2 SWAP1 SWAP2 SHL AND PUSH2 0xFF00 SWAP4 ISZERO ISZERO PUSH1 0x8 SHL SWAP4 SWAP1 SWAP4 AND SWAP2 ISZERO ISZERO PUSH1 0xFF AND PUSH1 0x1 PUSH1 0x1 PUSH1 0xB0 SHL SUB NOT SWAP1 SWAP5 AND SWAP4 SWAP1 SWAP4 OR OR OR SWAP1 SSTORE JUMP JUMPDEST ADD SWAP1 MLOAD DUP1 MLOAD SWAP1 PUSH1 0x1 PUSH1 0x1 PUSH1 0x40 SHL SUB DUP3 GT PUSH2 0x9E2 JUMPI PUSH2 0x1DA6 DUP4 SLOAD PUSH2 0x2529 JUMP JUMPDEST PUSH1 0x1F DUP2 GT PUSH2 0x1F0B JUMPI JUMPDEST POP PUSH1 0x20 SWAP1 PUSH1 0x1F DUP4 GT PUSH1 0x1 EQ PUSH2 0x1E7E JUMPI SWAP2 DUP1 PUSH2 0x1E60 SWAP5 SWAP3 PUSH32 0x3AFFC4E431F993CDDAB04D3AD4FC278BD89B8267B52D6DF20F056551372A0E0B SWAP9 SWAP5 PUSH1 0x0 SWAP3 PUSH2 0x1E73 JUMPI JUMPDEST POP POP DUP2 PUSH1 0x1 SHL SWAP2 PUSH1 0x0 NOT SWAP1 PUSH1 0x3 SHL SHR NOT AND OR SWAP1 SSTORE JUMPDEST PUSH1 0x1 SLOAD SWAP3 CALLER PUSH1 0x0 MSTORE PUSH1 0x3 PUSH1 0x20 MSTORE PUSH2 0x1E47 PUSH1 0x40 PUSH1 0x0 KECCAK256 SWAP2 PUSH2 0x1E39 PUSH1 0x40 MLOAD SWAP8 DUP9 SWAP8 DUP9 MSTORE PUSH2 0x100 PUSH1 0x20 DUP10 ADD MSTORE PUSH2 0x100 DUP9 ADD SWAP1 PUSH2 0x265F JUMP JUMPDEST SWAP1 DUP7 DUP3 SUB PUSH1 0x40 DUP9 ADD MSTORE PUSH2 0x265F JUMP JUMPDEST SWAP2 PUSH1 0x60 DUP6 ADD MSTORE CALLER PUSH1 0x80 DUP6 ADD MSTORE DUP4 DUP3 SUB PUSH1 0xA0 DUP6 ADD MSTORE PUSH2 0x272D JUMP JUMPDEST PUSH1 0x0 PUSH1 0xC0 DUP4 ADD MSTORE PUSH1 0x0 PUSH1 0xE0 DUP4 ADD MSTORE SUB SWAP1 LOG1 STOP JUMPDEST ADD MLOAD SWAP1 POP DUP9 DUP1 PUSH2 0x1DF0 JUMP JUMPDEST SWAP1 PUSH1 0x1F NOT DUP4 AND SWAP2 DUP5 PUSH1 0x0 MSTORE DUP2 PUSH1 0x0 KECCAK256 SWAP3 PUSH1 0x0 JUMPDEST DUP2 DUP2 LT PUSH2 0x1EF3 JUMPI POP SWAP3 PUSH1 0x1 SWAP3 DUP6 SWAP3 PUSH32 0x3AFFC4E431F993CDDAB04D3AD4FC278BD89B8267B52D6DF20F056551372A0E0B SWAP11 SWAP7 PUSH2 0x1E60 SWAP9 SWAP7 LT PUSH2 0x1EDA JUMPI JUMPDEST POP POP POP DUP2 SHL ADD SWAP1 SSTORE PUSH2 0x1E05 JUMP JUMPDEST ADD MLOAD PUSH1 0x0 NOT PUSH1 0xF8 DUP5 PUSH1 0x3 SHL AND SHR NOT AND SWAP1 SSTORE DUP9 DUP1 DUP1 PUSH2 0x1ECD JUMP JUMPDEST SWAP3 SWAP4 PUSH1 0x20 PUSH1 0x1 DUP2 SWAP3 DUP8 DUP7 ADD MLOAD DUP2 SSTORE ADD SWAP6 ADD SWAP4 ADD PUSH2 0x1E91 JUMP JUMPDEST DUP4 PUSH1 0x0 MSTORE PUSH1 0x20 PUSH1 0x0 KECCAK256 PUSH1 0x1F DUP5 ADD PUSH1 0x5 SHR DUP2 ADD SWAP2 PUSH1 0x20 DUP6 LT PUSH2 0x1F49 JUMPI JUMPDEST PUSH1 0x1F ADD PUSH1 0x5 SHR ADD SWAP1 JUMPDEST DUP2 DUP2 LT PUSH2 0x1F3D JUMPI POP PUSH2 0x1DAF JUMP JUMPDEST PUSH1 0x0 DUP2 SSTORE PUSH1 0x1 ADD PUSH2 0x1F30 JUMP JUMPDEST SWAP1 SWAP2 POP DUP2 SWAP1 PUSH2 0x1F27 JUMP JUMPDEST ADD MLOAD SWAP1 POP DUP14 DUP1 PUSH2 0x1D2D JUMP JUMPDEST SWAP1 PUSH1 0x1F NOT DUP4 AND SWAP2 DUP5 PUSH1 0x0 MSTORE DUP2 PUSH1 0x0 KECCAK256 SWAP3 PUSH1 0x0 JUMPDEST DUP2 DUP2 LT PUSH2 0x1FB7 JUMPI POP SWAP3 PUSH1 0x1 SWAP3 DUP6 SWAP3 PUSH1 0x7 SWAP12 SWAP11 SWAP9 SWAP7 PUSH2 0x1D88 SWAP11 SWAP9 SWAP7 LT PUSH2 0x1F9E JUMPI JUMPDEST POP POP POP DUP2 SHL ADD SWAP1 SSTORE PUSH2 0x1D42 JUMP JUMPDEST ADD MLOAD PUSH1 0x0 NOT PUSH1 0xF8 DUP5 PUSH1 0x3 SHL AND SHR NOT AND SWAP1 SSTORE DUP14 DUP1 DUP1 PUSH2 0x1F91 JUMP JUMPDEST SWAP3 SWAP4 PUSH1 0x20 PUSH1 0x1 DUP2 SWAP3 DUP8 DUP7 ADD MLOAD DUP2 SSTORE ADD SWAP6 ADD SWAP4 ADD PUSH2 0x1F71 JUMP JUMPDEST DUP4 PUSH1 0x0 MSTORE PUSH1 0x20 PUSH1 0x0 KECCAK256 PUSH1 0x1F DUP5 ADD PUSH1 0x5 SHR DUP2 ADD SWAP2 PUSH1 0x20 DUP6 LT PUSH2 0x200D JUMPI JUMPDEST PUSH1 0x1F ADD PUSH1 0x5 SHR ADD SWAP1 JUMPDEST DUP2 DUP2 LT PUSH2 0x2001 JUMPI POP PUSH2 0x1D08 JUMP JUMPDEST PUSH1 0x0 DUP2 SSTORE PUSH1 0x1 ADD PUSH2 0x1FF4 JUMP JUMPDEST SWAP1 SWAP2 POP DUP2 SWAP1 PUSH2 0x1FEB JUMP JUMPDEST ADD MLOAD SWAP1 POP DUP15 DUP1 PUSH2 0x1CA1 JUMP JUMPDEST PUSH1 0x0 DUP6 DUP2 MSTORE DUP3 DUP2 KECCAK256 SWAP4 POP PUSH1 0x1F NOT DUP6 AND SWAP1 JUMPDEST DUP2 DUP2 LT PUSH2 0x206F JUMPI POP SWAP1 DUP5 PUSH1 0x1 SWAP6 SWAP5 SWAP4 SWAP3 LT PUSH2 0x2056 JUMPI JUMPDEST POP POP POP DUP2 SHL ADD SWAP1 SSTORE PUSH2 0x1CB6 JUMP JUMPDEST ADD MLOAD PUSH1 0x0 NOT PUSH1 0xF8 DUP5 PUSH1 0x3 SHL AND SHR NOT AND SWAP1 SSTORE DUP15 DUP1 DUP1 PUSH2 0x2049 JUMP JUMPDEST SWAP3 SWAP4 PUSH1 0x20 PUSH1 0x1 DUP2 SWAP3 DUP8 DUP7 ADD MLOAD DUP2 SSTORE ADD SWAP6 ADD SWAP4 ADD PUSH2 0x2033 JUMP JUMPDEST SWAP1 SWAP2 POP DUP4 PUSH1 0x0 MSTORE PUSH1 0x20 PUSH1 0x0 KECCAK256 PUSH1 0x1F DUP5 ADD PUSH1 0x5 SHR DUP2 ADD SWAP2 PUSH1 0x20 DUP6 LT PUSH2 0x20D0 JUMPI JUMPDEST SWAP1 PUSH1 0x1F DUP6 SWAP5 SWAP4 SWAP3 ADD PUSH1 0x5 SHR ADD SWAP1 JUMPDEST DUP2 DUP2 LT PUSH2 0x20C1 JUMPI POP PUSH2 0x1C8A JUMP JUMPDEST PUSH1 0x0 DUP2 SSTORE DUP5 SWAP4 POP PUSH1 0x1 ADD PUSH2 0x20B4 JUMP JUMPDEST SWAP1 SWAP2 POP DUP2 SWAP1 PUSH2 0x20A6 JUMP JUMPDEST ADD MLOAD SWAP1 POP DUP16 DUP1 PUSH2 0x1C4A JUMP JUMPDEST PUSH1 0x0 DUP6 DUP2 MSTORE DUP3 DUP2 KECCAK256 SWAP4 POP PUSH1 0x1F NOT DUP6 AND SWAP1 JUMPDEST DUP2 DUP2 LT PUSH2 0x2132 JUMPI POP SWAP1 DUP5 PUSH1 0x1 SWAP6 SWAP5 SWAP4 SWAP3 LT PUSH2 0x2119 JUMPI JUMPDEST POP POP POP DUP2 SHL ADD SWAP1 SSTORE PUSH2 0x1C5F JUMP JUMPDEST ADD MLOAD PUSH1 0x0 NOT PUSH1 0xF8 DUP5 PUSH1 0x3 SHL AND SHR NOT AND SWAP1 SSTORE DUP16 DUP1 DUP1 PUSH2 0x210C JUMP JUMPDEST SWAP3 SWAP4 PUSH1 0x20 PUSH1 0x1 DUP2 SWAP3 DUP8 DUP7 ADD MLOAD DUP2 SSTORE ADD SWAP6 ADD SWAP4 ADD PUSH2 0x20F6 JUMP JUMPDEST SWAP1 SWAP2 POP DUP4 PUSH1 0x0 MSTORE PUSH1 0x20 PUSH1 0x0 KECCAK256 PUSH1 0x1F DUP5 ADD PUSH1 0x5 SHR DUP2 ADD SWAP2 PUSH1 0x20 DUP6 LT PUSH2 0x2193 JUMPI JUMPDEST SWAP1 PUSH1 0x1F DUP6 SWAP5 SWAP4 SWAP3 ADD PUSH1 0x5 SHR ADD SWAP1 JUMPDEST DUP2 DUP2 LT PUSH2 0x2184 JUMPI POP PUSH2 0x1C33 JUMP JUMPDEST PUSH1 0x0 DUP2 SSTORE DUP5 SWAP4 POP PUSH1 0x1 ADD PUSH2 0x2177 JUMP JUMPDEST SWAP1 SWAP2 POP DUP2 SWAP1 PUSH2 0x2169 JUMP JUMPDEST PUSH1 0x40 MLOAD PUSH3 0x461BCD PUSH1 0xE5 SHL DUP2 MSTORE PUSH1 0x20 PUSH1 0x4 DUP3 ADD MSTORE PUSH1 0x15 PUSH1 0x24 DUP3 ADD MSTORE PUSH21 0x14D95B1B195C881B9BDD081C9959DA5CDD195C9959 PUSH1 0x5A SHL PUSH1 0x44 DUP3 ADD MSTORE PUSH1 0x64 SWAP1 REVERT JUMPDEST PUSH1 0x40 MLOAD PUSH3 0x461BCD PUSH1 0xE5 SHL DUP2 MSTORE PUSH1 0x20 PUSH1 0x4 DUP3 ADD MSTORE PUSH1 0x11 PUSH1 0x24 DUP3 ADD MSTORE PUSH17 0x14D95B1B195C881A5CC8189B1BD8DAD959 PUSH1 0x7A SHL PUSH1 0x44 DUP3 ADD MSTORE PUSH1 0x64 SWAP1 REVERT JUMPDEST PUSH1 0x40 MLOAD PUSH3 0x461BCD PUSH1 0xE5 SHL DUP2 MSTORE PUSH1 0x20 PUSH1 0x4 DUP3 ADD MSTORE PUSH1 0x27 PUSH1 0x24 DUP3 ADD MSTORE PUSH32 0x50726F64756374207072696365206D7573742062652067726561746572207468 PUSH1 0x44 DUP3 ADD MSTORE PUSH7 0x616E207A65726F PUSH1 0xC8 SHL PUSH1 0x64 DUP3 ADD MSTORE PUSH1 0x84 SWAP1 REVERT JUMPDEST PUSH1 0x40 MLOAD PUSH3 0x461BCD PUSH1 0xE5 SHL DUP2 MSTORE PUSH1 0x20 PUSH1 0x4 DUP3 ADD MSTORE PUSH1 0x1D PUSH1 0x24 DUP3 ADD MSTORE PUSH32 0x50726F6475637420696D6167652055524C206973207265717569726564000000 PUSH1 0x44 DUP3 ADD MSTORE PUSH1 0x64 SWAP1 REVERT JUMPDEST PUSH1 0x40 MLOAD PUSH3 0x461BCD PUSH1 0xE5 SHL DUP2 MSTORE PUSH1 0x20 PUSH1 0x4 DUP3 ADD MSTORE PUSH1 0x18 PUSH1 0x24 DUP3 ADD MSTORE PUSH32 0x50726F64756374206E616D652069732072657175697265640000000000000000 PUSH1 0x44 DUP3 ADD MSTORE PUSH1 0x64 SWAP1 REVERT JUMPDEST CALLVALUE PUSH2 0x17C JUMPI PUSH1 0x20 CALLDATASIZE PUSH1 0x3 NOT ADD SLT PUSH2 0x17C JUMPI PUSH1 0x1 PUSH1 0x1 PUSH1 0xA0 SHL SUB PUSH2 0x2313 PUSH2 0x24FD JUMP JUMPDEST AND PUSH1 0x0 SWAP1 DUP2 MSTORE PUSH1 0x5 PUSH1 0x20 MSTORE PUSH1 0x40 SWAP1 KECCAK256 DUP1 SLOAD PUSH1 0x1 PUSH1 0x1 PUSH1 0xA0 SHL SUB AND SWAP1 PUSH2 0x233A SWAP1 PUSH1 0x1 ADD PUSH2 0x25BB JUMP JUMPDEST SWAP1 PUSH2 0x684 PUSH1 0x40 MLOAD SWAP3 DUP4 SWAP3 DUP4 MSTORE PUSH1 0x40 PUSH1 0x20 DUP5 ADD MSTORE PUSH1 0x40 DUP4 ADD SWAP1 PUSH2 0x265F JUMP JUMPDEST CALLVALUE PUSH2 0x17C JUMPI PUSH1 0x40 CALLDATASIZE PUSH1 0x3 NOT ADD SLT PUSH2 0x17C JUMPI PUSH2 0x2370 PUSH2 0x2513 JUMP JUMPDEST PUSH1 0x4 CALLDATALOAD PUSH1 0x0 MSTORE PUSH1 0x7 PUSH1 0x20 MSTORE PUSH1 0x40 PUSH1 0x0 KECCAK256 SWAP1 PUSH1 0x1 DUP1 PUSH1 0xA0 SHL SUB AND PUSH1 0x0 MSTORE PUSH1 0x20 MSTORE PUSH1 0x20 PUSH1 0xFF PUSH1 0x40 PUSH1 0x0 KECCAK256 SLOAD AND PUSH1 0x40 MLOAD SWAP1 ISZERO ISZERO DUP2 MSTORE RETURN JUMPDEST CALLVALUE PUSH2 0x17C JUMPI PUSH1 0x20 CALLDATASIZE PUSH1 0x3 NOT ADD SLT PUSH2 0x17C JUMPI PUSH1 0x1 PUSH1 0x1 PUSH1 0xA0 SHL SUB PUSH2 0x23C5 PUSH2 0x24FD JUMP JUMPDEST AND SWAP1 DUP2 PUSH1 0x0 MSTORE PUSH1 0x3 PUSH1 0x20 MSTORE PUSH1 0x2 PUSH1 0x40 PUSH1 0x0 KECCAK256 ADD SLOAD ISZERO PUSH2 0x24AF JUMPI POP PUSH1 0x0 DUP2 DUP2 MSTORE PUSH1 0x3 PUSH1 0x20 MSTORE PUSH1 0x40 SWAP1 KECCAK256 PUSH1 0x5 DUP2 ADD SLOAD PUSH1 0x2 SWAP1 SWAP2 ADD SLOAD GT ISZERO PUSH2 0x2459 JUMPI DUP1 PUSH1 0x0 MSTORE PUSH1 0x3 PUSH1 0x20 MSTORE PUSH1 0x5 PUSH1 0x40 PUSH1 0x0 KECCAK256 ADD PUSH2 0x2419 DUP2 SLOAD PUSH2 0x271E JUMP JUMPDEST SWAP1 SSTORE DUP1 PUSH1 0x0 MSTORE PUSH1 0x3 PUSH1 0x20 MSTORE PUSH32 0xD2A39A6FC73E40B10A3CE1AF8481F31B1454FC9A86710F826BEF0DC3F812D6C PUSH1 0x20 PUSH1 0x5 PUSH1 0x40 PUSH1 0x0 KECCAK256 ADD SLOAD PUSH1 0x40 MLOAD SWAP1 DUP2 MSTORE LOG2 STOP JUMPDEST PUSH1 0x40 MLOAD PUSH3 0x461BCD PUSH1 0xE5 SHL DUP2 MSTORE PUSH1 0x20 PUSH1 0x4 DUP3 ADD MSTORE PUSH1 0x28 PUSH1 0x24 DUP3 ADD MSTORE PUSH32 0x526174696E672063616E6E6F742065786365656420636F6E6669726D65642070 PUSH1 0x44 DUP3 ADD MSTORE PUSH8 0x7572636861736573 PUSH1 0xC0 SHL PUSH1 0x64 DUP3 ADD MSTORE PUSH1 0x84 SWAP1 REVERT JUMPDEST PUSH3 0x461BCD PUSH1 0xE5 SHL DUP2 MSTORE PUSH1 0x20 PUSH1 0x4 DUP3 ADD MSTORE PUSH1 0x24 DUP1 DUP3 ADD MSTORE PUSH32 0x53656C6C6572206D757374206861766520636F6E6669726D6564207075726368 PUSH1 0x44 DUP3 ADD MSTORE PUSH4 0x61736573 PUSH1 0xE0 SHL PUSH1 0x64 DUP3 ADD MSTORE PUSH1 0x84 SWAP1 REVERT JUMPDEST PUSH1 0x4 CALLDATALOAD SWAP1 PUSH1 0x1 PUSH1 0x1 PUSH1 0xA0 SHL SUB DUP3 AND DUP3 SUB PUSH2 0x17C JUMPI JUMP JUMPDEST PUSH1 0x24 CALLDATALOAD SWAP1 PUSH1 0x1 PUSH1 0x1 PUSH1 0xA0 SHL SUB DUP3 AND DUP3 SUB PUSH2 0x17C JUMPI JUMP JUMPDEST SWAP1 PUSH1 0x1 DUP3 DUP2 SHR SWAP3 AND DUP1 ISZERO PUSH2 0x2559 JUMPI JUMPDEST PUSH1 0x20 DUP4 LT EQ PUSH2 0x2543 JUMPI JUMP JUMPDEST PUSH4 0x4E487B71 PUSH1 0xE0 SHL PUSH1 0x0 MSTORE PUSH1 0x22 PUSH1 0x4 MSTORE PUSH1 0x24 PUSH1 0x0 REVERT JUMPDEST SWAP2 PUSH1 0x7F AND SWAP2 PUSH2 0x2538 JUMP JUMPDEST PUSH2 0x140 DUP2 ADD SWAP1 DUP2 LT PUSH1 0x1 PUSH1 0x1 PUSH1 0x40 SHL SUB DUP3 GT OR PUSH2 0x9E2 JUMPI PUSH1 0x40 MSTORE JUMP JUMPDEST PUSH1 0x40 DUP2 ADD SWAP1 DUP2 LT PUSH1 0x1 PUSH1 0x1 PUSH1 0x40 SHL SUB DUP3 GT OR PUSH2 0x9E2 JUMPI PUSH1 0x40 MSTORE JUMP JUMPDEST SWAP1 PUSH1 0x1F DUP1 NOT SWAP2 ADD AND DUP2 ADD SWAP1 DUP2 LT PUSH1 0x1 PUSH1 0x1 PUSH1 0x40 SHL SUB DUP3 GT OR PUSH2 0x9E2 JUMPI PUSH1 0x40 MSTORE JUMP JUMPDEST SWAP1 PUSH1 0x40 MLOAD SWAP2 DUP3 PUSH1 0x0 DUP3 SLOAD SWAP3 PUSH2 0x25CF DUP5 PUSH2 0x2529 JUMP JUMPDEST DUP1 DUP5 MSTORE SWAP4 PUSH1 0x1 DUP2 AND SWAP1 DUP2 ISZERO PUSH2 0x263D JUMPI POP PUSH1 0x1 EQ PUSH2 0x25F6 JUMPI JUMPDEST POP PUSH2 0x25F4 SWAP3 POP SUB DUP4 PUSH2 0x259A JUMP JUMPDEST JUMP JUMPDEST SWAP1 POP PUSH1 0x0 SWAP3 SWAP2 SWAP3 MSTORE PUSH1 0x20 PUSH1 0x0 KECCAK256 SWAP1 PUSH1 0x0 SWAP2 JUMPDEST DUP2 DUP4 LT PUSH2 0x2621 JUMPI POP POP SWAP1 PUSH1 0x20 PUSH2 0x25F4 SWAP3 DUP3 ADD ADD CODESIZE PUSH2 0x25E7 JUMP JUMPDEST PUSH1 0x20 SWAP2 SWAP4 POP DUP1 PUSH1 0x1 SWAP2 SLOAD DUP4 DUP6 DUP10 ADD ADD MSTORE ADD SWAP2 ADD SWAP1 SWAP2 DUP5 SWAP3 PUSH2 0x2608 JUMP JUMPDEST SWAP1 POP PUSH1 0x20 SWAP3 POP PUSH2 0x25F4 SWAP5 SWAP2 POP PUSH1 0xFF NOT AND DUP3 DUP5 ADD MSTORE ISZERO ISZERO PUSH1 0x5 SHL DUP3 ADD ADD CODESIZE PUSH2 0x25E7 JUMP JUMPDEST SWAP2 SWAP1 DUP3 MLOAD SWAP3 DUP4 DUP3 MSTORE PUSH1 0x0 JUMPDEST DUP5 DUP2 LT PUSH2 0x268B JUMPI POP POP DUP3 PUSH1 0x0 PUSH1 0x20 DUP1 SWAP5 SWAP6 DUP5 ADD ADD MSTORE PUSH1 0x1F DUP1 NOT SWAP2 ADD AND ADD ADD SWAP1 JUMP JUMPDEST DUP1 PUSH1 0x20 DUP1 SWAP3 DUP5 ADD ADD MLOAD DUP3 DUP3 DUP7 ADD ADD MSTORE ADD PUSH2 0x266A JUMP JUMPDEST DUP2 PUSH1 0x1F DUP3 ADD SLT ISZERO PUSH2 0x17C JUMPI DUP1 CALLDATALOAD SWAP1 PUSH1 0x1 PUSH1 0x1 PUSH1 0x40 SHL SUB DUP3 GT PUSH2 0x9E2 JUMPI PUSH1 0x40 MLOAD SWAP3 PUSH2 0x26D4 PUSH1 0x1F DUP5 ADD PUSH1 0x1F NOT AND PUSH1 0x20 ADD DUP6 PUSH2 0x259A JUMP JUMPDEST DUP3 DUP5 MSTORE PUSH1 0x20 DUP4 DUP4 ADD ADD GT PUSH2 0x17C JUMPI DUP2 PUSH1 0x0 SWAP3 PUSH1 0x20 DUP1 SWAP4 ADD DUP4 DUP7 ADD CALLDATACOPY DUP4 ADD ADD MSTORE SWAP1 JUMP JUMPDEST SWAP1 SWAP2 PUSH2 0x270D PUSH2 0x271B SWAP4 PUSH1 0x40 DUP5 MSTORE PUSH1 0x40 DUP5 ADD SWAP1 PUSH2 0x265F JUMP JUMPDEST SWAP2 PUSH1 0x20 DUP2 DUP5 SUB SWAP2 ADD MSTORE PUSH2 0x265F JUMP JUMPDEST SWAP1 JUMP JUMPDEST PUSH1 0x0 NOT DUP2 EQ PUSH2 0x3F5 JUMPI PUSH1 0x1 ADD SWAP1 JUMP JUMPDEST PUSH1 0x0 SWAP3 SWAP2 DUP2 SLOAD SWAP2 PUSH2 0x273D DUP4 PUSH2 0x2529 JUMP JUMPDEST DUP1 DUP4 MSTORE SWAP3 PUSH1 0x1 DUP2 AND SWAP1 DUP2 ISZERO PUSH2 0x2793 JUMPI POP PUSH1 0x1 EQ PUSH2 0x2759 JUMPI POP POP POP JUMP JUMPDEST PUSH1 0x0 SWAP1 DUP2 MSTORE PUSH1 0x20 DUP2 KECCAK256 SWAP4 SWAP5 POP SWAP2 SWAP3 JUMPDEST DUP4 DUP4 LT PUSH2 0x2779 JUMPI POP PUSH1 0x20 SWAP3 POP ADD ADD SWAP1 JUMP JUMPDEST PUSH1 0x1 DUP2 PUSH1 0x20 SWAP3 SWAP5 SWAP4 SWAP5 SLOAD DUP4 DUP6 DUP8 ADD ADD MSTORE ADD SWAP2 ADD SWAP2 SWAP1 PUSH2 0x2768 JUMP JUMPDEST SWAP2 POP POP PUSH1 0x20 SWAP4 SWAP5 POP PUSH1 0xFF SWAP3 SWAP2 SWAP3 NOT AND DUP4 DUP4 ADD MSTORE ISZERO ISZERO PUSH1 0x5 SHL ADD ADD SWAP1 JUMP JUMPDEST ISZERO PUSH2 0x27B7 JUMPI JUMP JUMPDEST PUSH1 0x40 MLOAD PUSH3 0x461BCD PUSH1 0xE5 SHL DUP2 MSTORE PUSH1 0x20 PUSH1 0x4 DUP3 ADD MSTORE PUSH1 0x16 PUSH1 0x24 DUP3 ADD MSTORE PUSH22 0x141C9BD91D58DD08191BD95CC81B9BDD08195E1A5CDD PUSH1 0x52 SHL PUSH1 0x44 DUP3 ADD MSTORE PUSH1 0x64 SWAP1 REVERT JUMPDEST SWAP2 SWAP4 PUSH2 0x2816 PUSH1 0x1 SWAP6 PUSH1 0xA0 SWAP6 SWAP9 SWAP8 SWAP4 DUP6 MSTORE PUSH1 0xC0 PUSH1 0x20 DUP7 ADD MSTORE PUSH1 0xC0 DUP6 ADD SWAP1 PUSH2 0x272D JUMP JUMPDEST SWAP7 PUSH1 0x40 DUP5 ADD MSTORE DUP5 DUP1 DUP6 SHL SUB AND PUSH1 0x60 DUP4 ADD MSTORE DUP4 DUP1 DUP5 SHL SUB AND PUSH1 0x80 DUP3 ADD MSTORE ADD MSTORE JUMP JUMPDEST DUP2 DUP2 MUL SWAP3 SWAP2 DUP2 ISZERO SWAP2 DUP5 DIV EQ OR ISZERO PUSH2 0x3F5 JUMPI JUMP JUMPDEST SWAP2 SWAP1 DUP3 SUB SWAP2 DUP3 GT PUSH2 0x3F5 JUMPI JUMP JUMPDEST SWAP2 SWAP1 DUP3 ADD DUP1 SWAP3 GT PUSH2 0x3F5 JUMPI JUMP JUMPDEST PUSH1 0x0 SLOAD PUSH1 0x1 PUSH1 0x1 PUSH1 0xA0 SHL SUB AND CALLER SUB PUSH2 0x2877 JUMPI JUMP JUMPDEST PUSH4 0x118CDAA7 PUSH1 0xE0 SHL PUSH1 0x0 MSTORE CALLER PUSH1 0x4 MSTORE PUSH1 0x24 PUSH1 0x0 REVERT INVALID LOG2 PUSH5 0x6970667358 0x22 SLT KECCAK256 OR SWAP9 0xB7 JUMP 0xD3 BLOCKHASH 0xCD 0xEE PUSH29 0x808C0979C222B8A9FCE164B1FC34955200D0E31C111CCC64736F6C6343 STOP ADDMOD SHR STOP CALLER "
        },
        "methodIdentifiers": {
          "blockedSellers(address)": "1205de47",
          "buyerCanceled(uint256,address)": "f6139f03",
          "cancelPurchase(uint256)": "c3634ddc",
          "canceledPurchases(uint256)": "ec1a9e88",
          "cancellationPenaltyPercentage()": "5e00d856",
          "confirmPayment(uint256)": "876ca09f",
          "createProduct(string,string,uint256,string)": "12c89196",
          "feePercentage()": "a001ecdd",
          "getProduct(uint256)": "b9db15b4",
          "getSellerDetails(uint256)": "2d24077d",
          "hasReported(uint256,address)": "0f0c3fc4",
          "isSellerBlocked(address)": "fd660d68",
          "owner()": "8da5cb5b",
          "penaltyPercentage()": "15908d51",
          "productCount()": "e0f6ef87",
          "products(uint256)": "7acc0b20",
          "purchaseProduct(uint256)": "38e76a03",
          "rateSeller(address)": "09f5d7ac",
          "registerSeller(string,string,string,string)": "15c24ed9",
          "renounceOwnership()": "715018a6",
          "reportCanceledPurchase(uint256)": "9833dcfa",
          "sellerContacts(address)": "633c3b0d",
          "sellers(address)": "6d47ab72",
          "totalFeesCollected()": "60c6d8ae",
          "transferOwnership(address)": "f2fde38b",
          "withdrawFees()": "476343ee"
        }
      }
    }
  }
}