{
  "_format": "hh-sol-artifact-1",
  "contractName": "ECommerce",
  "sourceName": "contracts/ECommerce.sol",
  "abi": [
    {
      "inputs": [
        {
          "internalType": "address",
          "name": "_usdc",
          "type": "address"
        }
      ],
      "stateMutability": "nonpayable",
      "type": "constructor"
    },
    {
      "inputs": [],
      "name": "AlreadyReported",
      "type": "error"
    },
    {
      "inputs": [],
      "name": "BuyerDidNotCancel",
      "type": "error"
    },
    {
      "inputs": [],
      "name": "ErrSellerBlocked",
      "type": "error"
    },
    {
      "inputs": [],
      "name": "ErrSellerNotBlocked",
      "type": "error"
    },
    {
      "inputs": [],
      "name": "FeeTransferFailed",
      "type": "error"
    },
    {
      "inputs": [],
      "name": "InvalidWithdrawAddress",
      "type": "error"
    },
    {
      "inputs": [],
      "name": "LocationRequired",
      "type": "error"
    },
    {
      "inputs": [],
      "name": "NoPaymentForProduct",
      "type": "error"
    },
    {
      "inputs": [
        {
          "internalType": "address",
          "name": "owner",
          "type": "address"
        }
      ],
      "name": "OwnableInvalidOwner",
      "type": "error"
    },
    {
      "inputs": [
        {
          "internalType": "address",
          "name": "account",
          "type": "address"
        }
      ],
      "name": "OwnableUnauthorizedAccount",
      "type": "error"
    },
    {
      "inputs": [],
      "name": "PenaltyToSellerFailed",
      "type": "error"
    },
    {
      "inputs": [],
      "name": "PhoneNumberRequired",
      "type": "error"
    },
    {
      "inputs": [],
      "name": "ProductAlreadyConfirmed",
      "type": "error"
    },
    {
      "inputs": [],
      "name": "ProductAlreadyPurchased",
      "type": "error"
    },
    {
      "inputs": [],
      "name": "ProductAlreadySold",
      "type": "error"
    },
    {
      "inputs": [],
      "name": "ProductDoesNotExist",
      "type": "error"
    },
    {
      "inputs": [],
      "name": "ProductImageRequired",
      "type": "error"
    },
    {
      "inputs": [],
      "name": "ProductInventoryZero",
      "type": "error"
    },
    {
      "inputs": [],
      "name": "ProductNameRequired",
      "type": "error"
    },
    {
      "inputs": [],
      "name": "ProductNotPaid",
      "type": "error"
    },
    {
      "inputs": [],
      "name": "ProductOutOfStock",
      "type": "error"
    },
    {
      "inputs": [],
      "name": "ProductPriceZero",
      "type": "error"
    },
    {
      "inputs": [],
      "name": "ProfileURIRequired",
      "type": "error"
    },
    {
      "inputs": [],
      "name": "RefundToBuyerFailed",
      "type": "error"
    },
    {
      "inputs": [],
      "name": "SellerAlreadyRegistered",
      "type": "error"
    },
    {
      "inputs": [],
      "name": "SellerCannotBuyOwnProduct",
      "type": "error"
    },
    {
      "inputs": [],
      "name": "SellerHasNoConfirmedPurchases",
      "type": "error"
    },
    {
      "inputs": [],
      "name": "SellerIsBlocked",
      "type": "error"
    },
    {
      "inputs": [],
      "name": "SellerNameRequired",
      "type": "error"
    },
    {
      "inputs": [],
      "name": "SellerNotRegistered",
      "type": "error"
    },
    {
      "inputs": [],
      "name": "SellerRatingExceeded",
      "type": "error"
    },
    {
      "inputs": [],
      "name": "USDCTransferFailed",
      "type": "error"
    },
    {
      "inputs": [],
      "name": "ZeroAddress",
      "type": "error"
    },
    {
      "anonymous": false,
      "inputs": [
        {
          "indexed": true,
          "internalType": "address",
          "name": "previousOwner",
          "type": "address"
        },
        {
          "indexed": true,
          "internalType": "address",
          "name": "newOwner",
          "type": "address"
        }
      ],
      "name": "OwnershipTransferred",
      "type": "event"
    },
    {
      "anonymous": false,
      "inputs": [
        {
          "indexed": false,
          "internalType": "uint256",
          "name": "id",
          "type": "uint256"
        },
        {
          "indexed": false,
          "internalType": "string",
          "name": "name",
          "type": "string"
        },
        {
          "indexed": false,
          "internalType": "uint256",
          "name": "price",
          "type": "uint256"
        },
        {
          "indexed": false,
          "internalType": "address payable",
          "name": "seller",
          "type": "address"
        },
        {
          "indexed": false,
          "internalType": "address payable",
          "name": "buyer",
          "type": "address"
        }
      ],
      "name": "PaymentConfirmed",
      "type": "event"
    },
    {
      "anonymous": false,
      "inputs": [
        {
          "indexed": false,
          "internalType": "uint256",
          "name": "id",
          "type": "uint256"
        },
        {
          "indexed": false,
          "internalType": "string",
          "name": "name",
          "type": "string"
        },
        {
          "indexed": false,
          "internalType": "string",
          "name": "imageUrl",
          "type": "string"
        },
        {
          "indexed": false,
          "internalType": "uint256",
          "name": "price",
          "type": "uint256"
        },
        {
          "indexed": false,
          "internalType": "address payable",
          "name": "seller",
          "type": "address"
        },
        {
          "indexed": false,
          "internalType": "string",
          "name": "sellerName",
          "type": "string"
        },
        {
          "indexed": false,
          "internalType": "uint256",
          "name": "inventory",
          "type": "uint256"
        }
      ],
      "name": "ProductCreated",
      "type": "event"
    },
    {
      "anonymous": false,
      "inputs": [
        {
          "indexed": false,
          "internalType": "uint256",
          "name": "id",
          "type": "uint256"
        },
        {
          "indexed": false,
          "internalType": "string",
          "name": "name",
          "type": "string"
        },
        {
          "indexed": false,
          "internalType": "uint256",
          "name": "price",
          "type": "uint256"
        },
        {
          "indexed": false,
          "internalType": "address payable",
          "name": "seller",
          "type": "address"
        },
        {
          "indexed": false,
          "internalType": "address payable",
          "name": "buyer",
          "type": "address"
        },
        {
          "indexed": false,
          "internalType": "bool",
          "name": "isPaid",
          "type": "bool"
        }
      ],
      "name": "ProductPurchased",
      "type": "event"
    },
    {
      "anonymous": false,
      "inputs": [
        {
          "indexed": true,
          "internalType": "address",
          "name": "sellerAddress",
          "type": "address"
        },
        {
          "indexed": false,
          "internalType": "string",
          "name": "reason",
          "type": "string"
        }
      ],
      "name": "SellerBlocked",
      "type": "event"
    },
    {
      "anonymous": false,
      "inputs": [
        {
          "indexed": true,
          "internalType": "address",
          "name": "sellerAddress",
          "type": "address"
        },
        {
          "indexed": false,
          "internalType": "uint256",
          "name": "rating",
          "type": "uint256"
        }
      ],
      "name": "SellerRated",
      "type": "event"
    },
    {
      "anonymous": false,
      "inputs": [
        {
          "indexed": true,
          "internalType": "address",
          "name": "sellerAddress",
          "type": "address"
        },
        {
          "indexed": false,
          "internalType": "string",
          "name": "name",
          "type": "string"
        },
        {
          "indexed": false,
          "internalType": "string",
          "name": "profileURI",
          "type": "string"
        }
      ],
      "name": "SellerRegistered",
      "type": "event"
    },
    {
      "anonymous": false,
      "inputs": [
        {
          "indexed": true,
          "internalType": "address",
          "name": "sellerAddress",
          "type": "address"
        }
      ],
      "name": "SellerUnblocked",
      "type": "event"
    },
    {
      "inputs": [],
      "name": "CANCELLATION_PENALTY_PERCENTAGE",
      "outputs": [
        {
          "internalType": "uint256",
          "name": "",
          "type": "uint256"
        }
      ],
      "stateMutability": "view",
      "type": "function"
    },
    {
      "inputs": [],
      "name": "FEE_PERCENTAGE",
      "outputs": [
        {
          "internalType": "uint256",
          "name": "",
          "type": "uint256"
        }
      ],
      "stateMutability": "view",
      "type": "function"
    },
    {
      "inputs": [],
      "name": "PENALTY_PERCENTAGE",
      "outputs": [
        {
          "internalType": "uint256",
          "name": "",
          "type": "uint256"
        }
      ],
      "stateMutability": "view",
      "type": "function"
    },
    {
      "inputs": [],
      "name": "SELLER_BLOCK_REPORTS_THRESHOLD",
      "outputs": [
        {
          "internalType": "uint256",
          "name": "",
          "type": "uint256"
        }
      ],
      "stateMutability": "view",
      "type": "function"
    },
    {
      "inputs": [],
      "name": "USDC_DECIMALS",
      "outputs": [
        {
          "internalType": "uint8",
          "name": "",
          "type": "uint8"
        }
      ],
      "stateMutability": "view",
      "type": "function"
    },
    {
      "inputs": [
        {
          "internalType": "address",
          "name": "_seller",
          "type": "address"
        },
        {
          "internalType": "string",
          "name": "_reason",
          "type": "string"
        }
      ],
      "name": "blockSellerByOwner",
      "outputs": [],
      "stateMutability": "nonpayable",
      "type": "function"
    },
    {
      "inputs": [
        {
          "internalType": "address",
          "name": "",
          "type": "address"
        }
      ],
      "name": "blockedSellers",
      "outputs": [
        {
          "internalType": "address",
          "name": "sellerAddress",
          "type": "address"
        },
        {
          "internalType": "string",
          "name": "reason",
          "type": "string"
        }
      ],
      "stateMutability": "view",
      "type": "function"
    },
    {
      "inputs": [
        {
          "internalType": "uint256",
          "name": "",
          "type": "uint256"
        },
        {
          "internalType": "address",
          "name": "",
          "type": "address"
        }
      ],
      "name": "buyerCanceled",
      "outputs": [
        {
          "internalType": "bool",
          "name": "",
          "type": "bool"
        }
      ],
      "stateMutability": "view",
      "type": "function"
    },
    {
      "inputs": [
        {
          "internalType": "uint256",
          "name": "_id",
          "type": "uint256"
        }
      ],
      "name": "cancelPurchase",
      "outputs": [],
      "stateMutability": "nonpayable",
      "type": "function"
    },
    {
      "inputs": [
        {
          "internalType": "uint256",
          "name": "_id",
          "type": "uint256"
        }
      ],
      "name": "confirmPayment",
      "outputs": [],
      "stateMutability": "nonpayable",
      "type": "function"
    },
    {
      "inputs": [
        {
          "internalType": "string",
          "name": "_name",
          "type": "string"
        },
        {
          "internalType": "string",
          "name": "_imageUrl",
          "type": "string"
        },
        {
          "internalType": "uint256",
          "name": "_price",
          "type": "uint256"
        },
        {
          "internalType": "string",
          "name": "_description",
          "type": "string"
        },
        {
          "internalType": "uint256",
          "name": "_inventory",
          "type": "uint256"
        }
      ],
      "name": "createProduct",
      "outputs": [],
      "stateMutability": "nonpayable",
      "type": "function"
    },
    {
      "inputs": [
        {
          "internalType": "address",
          "name": "_seller",
          "type": "address"
        }
      ],
      "name": "getBlockedSellerDetails",
      "outputs": [
        {
          "components": [
            {
              "internalType": "address",
              "name": "sellerAddress",
              "type": "address"
            },
            {
              "internalType": "string",
              "name": "reason",
              "type": "string"
            }
          ],
          "internalType": "struct ECommerce.BlockedSeller",
          "name": "",
          "type": "tuple"
        }
      ],
      "stateMutability": "view",
      "type": "function"
    },
    {
      "inputs": [
        {
          "internalType": "uint256",
          "name": "_id",
          "type": "uint256"
        }
      ],
      "name": "getProduct",
      "outputs": [
        {
          "components": [
            {
              "internalType": "uint256",
              "name": "id",
              "type": "uint256"
            },
            {
              "internalType": "string",
              "name": "name",
              "type": "string"
            },
            {
              "internalType": "string",
              "name": "imageUrl",
              "type": "string"
            },
            {
              "internalType": "uint256",
              "name": "price",
              "type": "uint256"
            },
            {
              "internalType": "address payable",
              "name": "seller",
              "type": "address"
            },
            {
              "internalType": "string",
              "name": "sellerName",
              "type": "string"
            },
            {
              "internalType": "string",
              "name": "description",
              "type": "string"
            },
            {
              "internalType": "uint256",
              "name": "inventory",
              "type": "uint256"
            },
            {
              "internalType": "uint256",
              "name": "totalSold",
              "type": "uint256"
            }
          ],
          "internalType": "struct ECommerce.Product",
          "name": "",
          "type": "tuple"
        }
      ],
      "stateMutability": "view",
      "type": "function"
    },
    {
      "inputs": [
        {
          "internalType": "uint256",
          "name": "_id",
          "type": "uint256"
        },
        {
          "internalType": "address",
          "name": "_buyer",
          "type": "address"
        }
      ],
      "name": "getPurchase",
      "outputs": [
        {
          "components": [
            {
              "internalType": "uint256",
              "name": "productId",
              "type": "uint256"
            },
            {
              "internalType": "address payable",
              "name": "buyer",
              "type": "address"
            },
            {
              "internalType": "bool",
              "name": "isPaid",
              "type": "bool"
            },
            {
              "internalType": "bool",
              "name": "isSold",
              "type": "bool"
            }
          ],
          "internalType": "struct ECommerce.Purchase",
          "name": "",
          "type": "tuple"
        }
      ],
      "stateMutability": "view",
      "type": "function"
    },
    {
      "inputs": [
        {
          "internalType": "uint256",
          "name": "_id",
          "type": "uint256"
        }
      ],
      "name": "getSellerDetails",
      "outputs": [
        {
          "components": [
            {
              "internalType": "string",
              "name": "location",
              "type": "string"
            },
            {
              "internalType": "string",
              "name": "phoneNumber",
              "type": "string"
            }
          ],
          "internalType": "struct ECommerce.SellerContact",
          "name": "",
          "type": "tuple"
        }
      ],
      "stateMutability": "view",
      "type": "function"
    },
    {
      "inputs": [],
      "name": "getTotalFeesCollected",
      "outputs": [
        {
          "internalType": "uint256",
          "name": "",
          "type": "uint256"
        }
      ],
      "stateMutability": "view",
      "type": "function"
    },
    {
      "inputs": [
        {
          "internalType": "uint256",
          "name": "",
          "type": "uint256"
        },
        {
          "internalType": "address",
          "name": "",
          "type": "address"
        }
      ],
      "name": "hasReported",
      "outputs": [
        {
          "internalType": "bool",
          "name": "",
          "type": "bool"
        }
      ],
      "stateMutability": "view",
      "type": "function"
    },
    {
      "inputs": [
        {
          "internalType": "address",
          "name": "",
          "type": "address"
        }
      ],
      "name": "isSellerBlocked",
      "outputs": [
        {
          "internalType": "bool",
          "name": "",
          "type": "bool"
        }
      ],
      "stateMutability": "view",
      "type": "function"
    },
    {
      "inputs": [],
      "name": "owner",
      "outputs": [
        {
          "internalType": "address",
          "name": "",
          "type": "address"
        }
      ],
      "stateMutability": "view",
      "type": "function"
    },
    {
      "inputs": [],
      "name": "productCount",
      "outputs": [
        {
          "internalType": "uint256",
          "name": "",
          "type": "uint256"
        }
      ],
      "stateMutability": "view",
      "type": "function"
    },
    {
      "inputs": [
        {
          "internalType": "uint256",
          "name": "",
          "type": "uint256"
        }
      ],
      "name": "products",
      "outputs": [
        {
          "internalType": "uint256",
          "name": "id",
          "type": "uint256"
        },
        {
          "internalType": "string",
          "name": "name",
          "type": "string"
        },
        {
          "internalType": "string",
          "name": "imageUrl",
          "type": "string"
        },
        {
          "internalType": "uint256",
          "name": "price",
          "type": "uint256"
        },
        {
          "internalType": "address payable",
          "name": "seller",
          "type": "address"
        },
        {
          "internalType": "string",
          "name": "sellerName",
          "type": "string"
        },
        {
          "internalType": "string",
          "name": "description",
          "type": "string"
        },
        {
          "internalType": "uint256",
          "name": "inventory",
          "type": "uint256"
        },
        {
          "internalType": "uint256",
          "name": "totalSold",
          "type": "uint256"
        }
      ],
      "stateMutability": "view",
      "type": "function"
    },
    {
      "inputs": [
        {
          "internalType": "uint256",
          "name": "_id",
          "type": "uint256"
        }
      ],
      "name": "purchaseProduct",
      "outputs": [],
      "stateMutability": "nonpayable",
      "type": "function"
    },
    {
      "inputs": [
        {
          "internalType": "uint256",
          "name": "",
          "type": "uint256"
        },
        {
          "internalType": "address",
          "name": "",
          "type": "address"
        }
      ],
      "name": "purchases",
      "outputs": [
        {
          "internalType": "uint256",
          "name": "productId",
          "type": "uint256"
        },
        {
          "internalType": "address payable",
          "name": "buyer",
          "type": "address"
        },
        {
          "internalType": "bool",
          "name": "isPaid",
          "type": "bool"
        },
        {
          "internalType": "bool",
          "name": "isSold",
          "type": "bool"
        }
      ],
      "stateMutability": "view",
      "type": "function"
    },
    {
      "inputs": [
        {
          "internalType": "address",
          "name": "_seller",
          "type": "address"
        }
      ],
      "name": "rateSeller",
      "outputs": [],
      "stateMutability": "nonpayable",
      "type": "function"
    },
    {
      "inputs": [
        {
          "internalType": "string",
          "name": "_name",
          "type": "string"
        },
        {
          "internalType": "string",
          "name": "_profileURI",
          "type": "string"
        },
        {
          "internalType": "string",
          "name": "_location",
          "type": "string"
        },
        {
          "internalType": "string",
          "name": "_phoneNumber",
          "type": "string"
        }
      ],
      "name": "registerSeller",
      "outputs": [],
      "stateMutability": "nonpayable",
      "type": "function"
    },
    {
      "inputs": [],
      "name": "renounceOwnership",
      "outputs": [],
      "stateMutability": "nonpayable",
      "type": "function"
    },
    {
      "inputs": [
        {
          "internalType": "uint256",
          "name": "_id",
          "type": "uint256"
        }
      ],
      "name": "reportCanceledPurchase",
      "outputs": [],
      "stateMutability": "nonpayable",
      "type": "function"
    },
    {
      "inputs": [
        {
          "internalType": "address",
          "name": "",
          "type": "address"
        }
      ],
      "name": "sellerContacts",
      "outputs": [
        {
          "internalType": "string",
          "name": "location",
          "type": "string"
        },
        {
          "internalType": "string",
          "name": "phoneNumber",
          "type": "string"
        }
      ],
      "stateMutability": "view",
      "type": "function"
    },
    {
      "inputs": [
        {
          "internalType": "address",
          "name": "",
          "type": "address"
        }
      ],
      "name": "sellers",
      "outputs": [
        {
          "internalType": "string",
          "name": "name",
          "type": "string"
        },
        {
          "internalType": "string",
          "name": "profileURI",
          "type": "string"
        },
        {
          "internalType": "uint256",
          "name": "confirmedPurchases",
          "type": "uint256"
        },
        {
          "internalType": "uint256",
          "name": "canceledPurchases",
          "type": "uint256"
        },
        {
          "internalType": "uint256",
          "name": "reportedPurchases",
          "type": "uint256"
        },
        {
          "internalType": "uint256",
          "name": "rating",
          "type": "uint256"
        }
      ],
      "stateMutability": "view",
      "type": "function"
    },
    {
      "inputs": [],
      "name": "totalFeesCollected",
      "outputs": [
        {
          "internalType": "uint256",
          "name": "",
          "type": "uint256"
        }
      ],
      "stateMutability": "view",
      "type": "function"
    },
    {
      "inputs": [
        {
          "internalType": "address",
          "name": "newOwner",
          "type": "address"
        }
      ],
      "name": "transferOwnership",
      "outputs": [],
      "stateMutability": "nonpayable",
      "type": "function"
    },
    {
      "inputs": [
        {
          "internalType": "address",
          "name": "_seller",
          "type": "address"
        }
      ],
      "name": "unblockSeller",
      "outputs": [],
      "stateMutability": "nonpayable",
      "type": "function"
    },
    {
      "inputs": [],
      "name": "usdc",
      "outputs": [
        {
          "internalType": "contract IERC20",
          "name": "",
          "type": "address"
        }
      ],
      "stateMutability": "view",
      "type": "function"
    },
    {
      "inputs": [
        {
          "internalType": "address",
          "name": "to",
          "type": "address"
        }
      ],
      "name": "withdrawFees",
      "outputs": [],
      "stateMutability": "nonpayable",
      "type": "function"
    }
  ],
  "bytecode": "0x608060405260006002556000600b5534801561001a57600080fd5b50604051612d75380380612d7583398101604081905261003991610105565b338061005f57604051631e4fbdf760e01b81526000600482015260240160405180910390fd5b610068816100b5565b506001600160a01b0381166100905760405163d92e233d60e01b815260040160405180910390fd5b600180546001600160a01b0319166001600160a01b0392909216919091179055610135565b600080546001600160a01b038381166001600160a01b0319831681178455604051919092169283917f8be0079c531659141344cd1fd0a4f28419497f9722a3daafe3b4186f6b6457e09190a35050565b60006020828403121561011757600080fd5b81516001600160a01b038116811461012e57600080fd5b9392505050565b612c31806101446000396000f3fe608060405234801561001057600080fd5b50600436106102055760003560e01c806370aca8a81161011a578063c1419def116100ad578063e0f6ef871161007c578063e0f6ef8714610512578063e33bb7811461051b578063f2fde38b1461056e578063f6139f0314610581578063fd660d68146105af57600080fd5b8063c1419def146104bf578063c3634ddc146104d9578063c9041ac9146104ec578063c95ef46c146104ff57600080fd5b80638da5cb5b116100e95780638da5cb5b1461046857806391e98e8e146104795780639833dcfa1461048c578063b9db15b41461049f57600080fd5b806370aca8a814610299578063715018a6146104255780637acc0b201461042d578063876ca09f1461045557600080fd5b80632d24077d1161019d57806360c6d8ae1161016c57806360c6d8ae146103ae578063613ee115146103b7578063633c3b0d146103d75780636d47ab72146103f85780636dc61f2e1461041d57600080fd5b80632d24077d1461034857806338e76a03146103685780633e413bee1461037b57806346876508146103a657600080fd5b8063123927a5116101d9578063123927a51461029957806315c24ed9146102a1578063164e68de146102b45780631c09e5c6146102c757600080fd5b80620b46f81461020a57806309f5d7ac146102255780630f0c3fc41461023a5780631205de4714610278575b600080fd5b610212600581565b6040519081526020015b60405180910390f35b6102386102333660046122ee565b6105d2565b005b610268610248366004612310565b600860209081526000928352604080842090915290825290205460ff1681565b604051901515815260200161021c565b61028b6102863660046122ee565b6106cd565b60405161021c929190612382565b610212600381565b6102386102af366004612453565b61077c565b6102386102c23660046122ee565b610951565b6103186102d5366004612310565b6009602090815260009283526040808420909152908252902080546001909101546001600160a01b0381169060ff600160a01b8204811691600160a81b90041684565b604080519485526001600160a01b039093166020850152901515918301919091521515606082015260800161021c565b61035b610356366004612513565b610a29565b60405161021c919061252c565b610238610376366004612513565b610bdc565b60015461038e906001600160a01b031681565b6040516001600160a01b03909116815260200161021c565b600b54610212565b610212600b5481565b6103ca6103c53660046122ee565b610e41565b60405161021c919061256e565b6103ea6103e53660046122ee565b610ed1565b60405161021c92919061259b565b61040b6104063660046122ee565b610f7a565b60405161021c969594939291906125c0565b610212600a81565b6102386110be565b61044061043b366004612513565b6110d2565b60405161021c9998979695949392919061260b565b610238610463366004612513565b611347565b6000546001600160a01b031661038e565b610238610487366004612690565b61156f565b61023861049a366004612513565b611864565b6104b26104ad366004612513565b6119c3565b60405161021c9190612736565b6104c7600681565b60405160ff909116815260200161021c565b6102386104e7366004612513565b611cc8565b6102386104fa3660046122ee565b611f85565b61023861050d366004612800565b612045565b61021260025481565b61052e610529366004612310565b61213f565b60405161021c9190815181526020808301516001600160a01b03169082015260408083015115159082015260609182015115159181019190915260800190565b61023861057c3660046122ee565b6121c4565b61026861058f366004612310565b600a60209081526000928352604080842090915290825290205460ff1681565b6102686105bd3660046122ee565b60076020526000908152604090205460ff1681565b6001600160a01b038116600090815260046020526040812060020154900361060d57604051630dd6c66960e31b815260040160405180910390fd5b6001600160a01b038116600090815260046020526040902060028101546005909101541061064e576040516350f2d0c360e01b815260040160405180910390fd5b6001600160a01b038116600090815260046020526040812060050180549161067583612864565b90915550506001600160a01b0381166000818152600460209081526040918290206005015491519182527f0d2a39a6fc73e40b10a3ce1af8481f31b1454fc9a86710f826bef0dc3f812d6c910160405180910390a250565b600660205260009081526040902080546001820180546001600160a01b0390921692916106f99061287d565b80601f01602080910402602001604051908101604052809291908181526020018280546107259061287d565b80156107725780601f1061074757610100808354040283529160200191610772565b820191906000526020600020905b81548152906001019060200180831161075557829003601f168201915b5050505050905082565b835160000361079e57604051634b5980ef60e11b815260040160405180910390fd5b82516000036107c0576040516314e7250760e21b815260040160405180910390fd5b81516000036107e257604051637392b08560e01b815260040160405180910390fd5b805160000361080457604051630aaf04c560e21b815260040160405180910390fd5b336000908152600460205260409020805461081e9061287d565b15905061083e576040516301abfbd360e61b815260040160405180910390fd5b6040805160c08101825285815260208082018690526000828401819052606083018190526080830181905260a083018190523381526004909152919091208151819061088a9082612905565b506020820151600182019061089f9082612905565b506040828101516002830155606083015160038301556080830151600483015560a090920151600591820155815180830183528481526020808201859052336000908152929052919020815181906108f79082612905565b506020820151600182019061090c9082612905565b50506040513391507f029a886814235a877cf2ff5df3c674a946b17782bf260ca120b7b951a6d35cc690610943908790879061259b565b60405180910390a250505050565b610959612207565b6001600160a01b03811661098057604051637a55fc8960e11b815260040160405180910390fd5b600b805460009182905560015460405163a9059cbb60e01b81526001600160a01b038581166004830152602482018490529293929091169063a9059cbb906044016020604051808303816000875af11580156109e0573d6000803e3d6000fd5b505050506040513d601f19601f82011682018060405250810190610a0491906129c4565b905080610a2457604051634033e4e360e01b815260040160405180910390fd5b505050565b60408051808201909152606080825260208201526000828152600960209081526040808320338452909152902060010154600160a01b900460ff16610a8157604051633abc85cb60e01b815260040160405180910390fd5b6000828152600360209081526040808320600401546001600160a01b031683526005909152908190208151808301909252805482908290610ac19061287d565b80601f0160208091040260200160405190810160405280929190818152602001828054610aed9061287d565b8015610b3a5780601f10610b0f57610100808354040283529160200191610b3a565b820191906000526020600020905b815481529060010190602001808311610b1d57829003601f168201915b50505050508152602001600182018054610b539061287d565b80601f0160208091040260200160405190810160405280929190818152602001828054610b7f9061287d565b8015610bcc5780601f10610ba157610100808354040283529160200191610bcc565b820191906000526020600020905b815481529060010190602001808311610baf57829003601f168201915b5050505050815250509050919050565b600081815260036020526040902080541580610bfa57506002548154115b15610c1857604051635ffe0da160e01b815260040160405180910390fd5b8060070154600003610c3d576040516338884faf60e01b815260040160405180910390fd5b6004810154336001600160a01b0390911603610c6c57604051633c3147ad60e21b815260040160405180910390fd5b6000828152600960209081526040808320338452909152902060010154600160a01b900460ff1615610cb157604051630738240d60e11b815260040160405180910390fd5b6001816007016000828254610cc691906129e6565b90915550506040805160808101825283815233602080830182815260018486018181526000606087018181528a8252600986528882208783529095528790209551865591519481018054925193511515600160a81b0260ff60a81b19941515600160a01b026001600160a81b03199094166001600160a01b03978816179390931793909316919091179091556003850154600486015494517f64f41258f3d51a589cea8504d1f51403f46583535a3e84e2cbe3f8d50674d00b95610d97958995898601959290911692909190612a7c565b60405180910390a160015460038201546040516323b872dd60e01b815233600482015230602482015260448101919091526000916001600160a01b0316906323b872dd906064016020604051808303816000875af1158015610dfd573d6000803e3d6000fd5b505050506040513d601f19601f82011682018060405250810190610e2191906129c4565b905080610a245760405163a55b288760e01b815260040160405180910390fd5b6040805180820190915260008152606060208201526001600160a01b03821660009081526007602052604090205460ff16610e8f57604051630541b48960e41b815260040160405180910390fd5b6001600160a01b0380831660009081526006602090815260409182902082518084019093528054909316825260018301805492939291840191610b539061287d565b600560205260009081526040902080548190610eec9061287d565b80601f0160208091040260200160405190810160405280929190818152602001828054610f189061287d565b8015610f655780601f10610f3a57610100808354040283529160200191610f65565b820191906000526020600020905b815481529060010190602001808311610f4857829003601f168201915b5050505050908060010180546106f99061287d565b600460205260009081526040902080548190610f959061287d565b80601f0160208091040260200160405190810160405280929190818152602001828054610fc19061287d565b801561100e5780601f10610fe35761010080835404028352916020019161100e565b820191906000526020600020905b815481529060010190602001808311610ff157829003601f168201915b5050505050908060010180546110239061287d565b80601f016020809104026020016040519081016040528092919081815260200182805461104f9061287d565b801561109c5780601f106110715761010080835404028352916020019161109c565b820191906000526020600020905b81548152906001019060200180831161107f57829003601f168201915b5050505050908060020154908060030154908060040154908060050154905086565b6110c6612207565b6110d06000612234565b565b600360205260009081526040902080546001820180549192916110f49061287d565b80601f01602080910402602001604051908101604052809291908181526020018280546111209061287d565b801561116d5780601f106111425761010080835404028352916020019161116d565b820191906000526020600020905b81548152906001019060200180831161115057829003601f168201915b5050505050908060020180546111829061287d565b80601f01602080910402602001604051908101604052809291908181526020018280546111ae9061287d565b80156111fb5780601f106111d0576101008083540402835291602001916111fb565b820191906000526020600020905b8154815290600101906020018083116111de57829003601f168201915b5050505060038301546004840154600585018054949592946001600160a01b0390921693509061122a9061287d565b80601f01602080910402602001604051908101604052809291908181526020018280546112569061287d565b80156112a35780601f10611278576101008083540402835291602001916112a3565b820191906000526020600020905b81548152906001019060200180831161128657829003601f168201915b5050505050908060060180546112b89061287d565b80601f01602080910402602001604051908101604052809291908181526020018280546112e49061287d565b80156113315780601f1061130657610100808354040283529160200191611331565b820191906000526020600020905b81548152906001019060200180831161131457829003601f168201915b5050505050908060070154908060080154905089565b6000818152600360209081526040808320600983528184203385529092529091206001810154600160a01b900460ff1661139457604051633abc85cb60e01b815260040160405180910390fd5b6001810154600160a81b900460ff16156113c157604051630a5de41b60e01b815260040160405180910390fd5b60006064600584600301546113d69190612ac6565b6113e09190612add565b905060008184600301546113f491906129e6565b905081600b60008282546114089190612aff565b90915550506001838101805460ff60a81b1916600160a81b179055600885018054600090611437908490612aff565b909155505060015460048581015460405163a9059cbb60e01b81526001600160a01b039182169281019290925260248201849052600092169063a9059cbb906044016020604051808303816000875af1158015611498573d6000803e3d6000fd5b505050506040513d601f19601f820116820180604052508101906114bc91906129c4565b9050806114dc5760405163a55b288760e01b815260040160405180910390fd5b6004858101546001600160a01b031660009081526020919091526040812060020180546001929061150e908490612aff565b9091555050600385015460048601546040517ff63346d89b8e6811d59bf9cecbead5cc54e6cbdddb5f79bc68644368d87564269261155f928a9260018b0192916001600160a01b0316903390612b12565b60405180910390a1505050505050565b84516000036115915760405163f585bddb60e01b815260040160405180910390fd5b83516000036115b357604051639152d2c160e01b815260040160405180910390fd5b826000036115d457604051632046f7d760e21b815260040160405180910390fd5b806000036115f5576040516332bba05f60e21b815260040160405180910390fd5b3360009081526007602052604090205460ff161561162657604051635f7cd66f60e11b815260040160405180910390fd5b33600090815260046020526040902080546116409061287d565b905060000361166257604051636605cccd60e01b815260040160405180910390fd5b6002805490600061167283612864565b90915550506040805161012081018252600254815260208082018890528183018790526060820186905233608083018190526000908152600490915291909120805460a0830191906116c39061287d565b80601f01602080910402602001604051908101604052809291908181526020018280546116ef9061287d565b801561173c5780601f106117115761010080835404028352916020019161173c565b820191906000526020600020905b81548152906001019060200180831161171f57829003601f168201915b50505091835250506020808201859052604080830185905260006060909301839052600254835260038252909120825181559082015160018201906117819082612905565b50604082015160028201906117969082612905565b506060820151600382015560808201516004820180546001600160a01b0319166001600160a01b0390921691909117905560a082015160058201906117db9082612905565b5060c082015160068201906117f09082612905565b5060e0820151600782015561010090910151600890910155600254336000818152600460205260409081902090517f05ff3c6124b597b7e4e0490d9b5a055aabd50db1c4bc593bde16d6a966335273936118559390928a928a928a9290918990612b52565b60405180910390a15050505050565b6000818152600a6020908152604080832033845290915290205460ff1661189e57604051635d6b2de760e01b815260040160405180910390fd5b600081815260086020908152604080832033845290915290205460ff16156118d95760405163770c15e360e01b815260040160405180910390fd5b60008181526008602090815260408083203384528252808320805460ff19166001908117909155848452600383528184206004808201546001600160a01b0316865293849052918420909201805491939091611936908490612aff565b90915550506004818101546001600160a01b03166000908152602082905260409020015460031180159061198957506004818101546001600160a01b031660009081526020919091526040902060020154155b156119bf5760048101546040805160608101909152602c8082526119bf926001600160a01b03169190612bd0602083013961204d565b5050565b611a1b6040518061012001604052806000815260200160608152602001606081526020016000815260200160006001600160a01b03168152602001606081526020016060815260200160008152602001600081525090565b600360008381526020019081526020016000206040518061012001604052908160008201548152602001600182018054611a549061287d565b80601f0160208091040260200160405190810160405280929190818152602001828054611a809061287d565b8015611acd5780601f10611aa257610100808354040283529160200191611acd565b820191906000526020600020905b815481529060010190602001808311611ab057829003601f168201915b50505050508152602001600282018054611ae69061287d565b80601f0160208091040260200160405190810160405280929190818152602001828054611b129061287d565b8015611b5f5780601f10611b3457610100808354040283529160200191611b5f565b820191906000526020600020905b815481529060010190602001808311611b4257829003601f168201915b50505091835250506003820154602082015260048201546001600160a01b03166040820152600582018054606090920191611b999061287d565b80601f0160208091040260200160405190810160405280929190818152602001828054611bc59061287d565b8015611c125780601f10611be757610100808354040283529160200191611c12565b820191906000526020600020905b815481529060010190602001808311611bf557829003601f168201915b50505050508152602001600682018054611c2b9061287d565b80601f0160208091040260200160405190810160405280929190818152602001828054611c579061287d565b8015611ca45780601f10611c7957610100808354040283529160200191611ca4565b820191906000526020600020905b815481529060010190602001808311611c8757829003601f168201915b50505050508152602001600782015481526020016008820154815250509050919050565b6000818152600360209081526040808320600983528184203385529092529091206001810154600160a01b900460ff16611d1557604051630216e31d60e01b815260040160405180910390fd5b6001810154600160a81b900460ff1615611d4257604051631b297ae360e21b815260040160405180910390fd5b60006064600a8460030154611d579190612ac6565b611d619190612add565b90506000818460030154611d7591906129e6565b905060006064611d86600385612ac6565b611d909190612add565b90506000611d9e82856129e6565b905081600b6000828254611db29190612aff565b90915550506001858101805460ff60a01b198116909155905460405163a9059cbb60e01b81526001600160a01b039283166004820152602481018690526000929091169063a9059cbb906044016020604051808303816000875af1158015611e1e573d6000803e3d6000fd5b505050506040513d601f19601f82011682018060405250810190611e4291906129c4565b905080611e625760405163aa6d4e7760e01b815260040160405180910390fd5b60015460048881015460405163a9059cbb60e01b81526001600160a01b039182169281019290925260248201859052600092169063a9059cbb906044016020604051808303816000875af1158015611ebe573d6000803e3d6000fd5b505050506040513d601f19601f82011682018060405250810190611ee291906129c4565b905080611f0257604051636ad1370160e01b815260040160405180910390fd5b6004888101546001600160a01b0316600090815260209190915260408120600301805460019290611f34908490612aff565b90915550506000898152600a602090815260408083203384529091528120805460ff1916600190811790915560078a01805491929091611f75908490612aff565b9091555050505050505050505050565b611f8d612207565b6001600160a01b03811660009081526007602052604090205460ff16611fc657604051630541b48960e41b815260040160405180910390fd5b6001600160a01b0381166000908152600760209081526040808320805460ff191690556006909152812080546001600160a01b03191681559061200c6001830182612284565b50506040516001600160a01b038216907fde14f905ce85a35cc80212091e3eeef8233ad14fa9fe8d84740e7d01b15807bf90600090a250565b61204d612207565b6001600160a01b03821660009081526007602052604090205460ff161561208757604051635f7cd66f60e11b815260040160405180910390fd5b6040805180820182526001600160a01b03848116808352602080840186815260009283526006909152939020825181546001600160a01b0319169216919091178155915190919060018201906120dd9082612905565b5050506001600160a01b03821660008181526007602052604090819020805460ff19166001179055517fd1ab8ed187c2b3794adb1cc1433a2872e8e959a63970ede2beaec4df3f894bef90612133908490612bbc565b60405180910390a25050565b6040805160808082018352600080835260208084018290528385018290526060938401829052868252600981528482206001600160a01b038781168452908252918590208551938401865280548452600101549182169083015260ff600160a01b82048116151594830194909452600160a81b90049092161515908201525b92915050565b6121cc612207565b6001600160a01b0381166121fb57604051631e4fbdf760e01b8152600060048201526024015b60405180910390fd5b61220481612234565b50565b6000546001600160a01b031633146110d05760405163118cdaa760e01b81523360048201526024016121f2565b600080546001600160a01b038381166001600160a01b0319831681178455604051919092169283917f8be0079c531659141344cd1fd0a4f28419497f9722a3daafe3b4186f6b6457e09190a35050565b5080546122909061287d565b6000825580601f106122a0575050565b601f01602090049060005260206000209081019061220491905b808211156122ce57600081556001016122ba565b5090565b80356001600160a01b03811681146122e957600080fd5b919050565b60006020828403121561230057600080fd5b612309826122d2565b9392505050565b6000806040838503121561232357600080fd5b82359150612333602084016122d2565b90509250929050565b6000815180845260005b8181101561236257602081850181015186830182015201612346565b506000602082860101526020601f19601f83011685010191505092915050565b6001600160a01b03831681526040602082018190526000906123a69083018461233c565b949350505050565b634e487b7160e01b600052604160045260246000fd5b600082601f8301126123d557600080fd5b813567ffffffffffffffff8111156123ef576123ef6123ae565b604051601f8201601f19908116603f0116810167ffffffffffffffff8111828210171561241e5761241e6123ae565b60405281815283820160200185101561243657600080fd5b816020850160208301376000918101602001919091529392505050565b6000806000806080858703121561246957600080fd5b843567ffffffffffffffff81111561248057600080fd5b61248c878288016123c4565b945050602085013567ffffffffffffffff8111156124a957600080fd5b6124b5878288016123c4565b935050604085013567ffffffffffffffff8111156124d257600080fd5b6124de878288016123c4565b925050606085013567ffffffffffffffff8111156124fb57600080fd5b612507878288016123c4565b91505092959194509250565b60006020828403121561252557600080fd5b5035919050565b602081526000825160406020840152612548606084018261233c565b90506020840151601f19848303016040850152612565828261233c565b95945050505050565b602080825282516001600160a01b0316828201528201516040808301526000906123a6606084018261233c565b6040815260006125ae604083018561233c565b8281036020840152612565818561233c565b60c0815260006125d360c083018961233c565b82810360208401526125e5818961233c565b9150508560408301528460608301528360808301528260a0830152979650505050505050565b8981526101206020820152600061262661012083018b61233c565b8281036040840152612638818b61233c565b606084018a90526001600160a01b038916608085015283810360a08501529050612662818861233c565b905082810360c0840152612676818761233c565b60e084019590955250506101000152979650505050505050565b600080600080600060a086880312156126a857600080fd5b853567ffffffffffffffff8111156126bf57600080fd5b6126cb888289016123c4565b955050602086013567ffffffffffffffff8111156126e857600080fd5b6126f4888289016123c4565b94505060408601359250606086013567ffffffffffffffff81111561271857600080fd5b612724888289016123c4565b95989497509295608001359392505050565b602081528151602082015260006020830151610120604084015261275e61014084018261233c565b90506040840151601f1984830301606085015261277b828261233c565b9150506060840151608084015260808401516127a260a08501826001600160a01b03169052565b5060a0840151838203601f190160c08501526127be828261233c565b91505060c0840151601f198483030160e08501526127dc828261233c565b91505060e08401516101008401526101008401516101208401528091505092915050565b6000806040838503121561281357600080fd5b61281c836122d2565b9150602083013567ffffffffffffffff81111561283857600080fd5b612844858286016123c4565b9150509250929050565b634e487b7160e01b600052601160045260246000fd5b6000600182016128765761287661284e565b5060010190565b600181811c9082168061289157607f821691505b6020821081036128b157634e487b7160e01b600052602260045260246000fd5b50919050565b601f821115610a2457806000526020600020601f840160051c810160208510156128de5750805b601f840160051c820191505b818110156128fe57600081556001016128ea565b5050505050565b815167ffffffffffffffff81111561291f5761291f6123ae565b6129338161292d845461287d565b846128b7565b6020601f821160018114612967576000831561294f5750848201515b600019600385901b1c1916600184901b1784556128fe565b600084815260208120601f198516915b828110156129975787850151825560209485019460019092019101612977565b50848210156129b55786840151600019600387901b60f8161c191681555b50505050600190811b01905550565b6000602082840312156129d657600080fd5b8151801515811461230957600080fd5b818103818111156121be576121be61284e565b60008154612a068161287d565b808552600182168015612a205760018114612a3c57612a73565b60ff1983166020870152602082151560051b8701019350612a73565b84600052602060002060005b83811015612a6a5781546020828a010152600182019150602081019050612a48565b87016020019450505b50505092915050565b86815260c060208201526000612a9560c08301886129f9565b6040830196909652506001600160a01b03938416606082015291909216608082015290151560a09091015292915050565b80820281158282048414176121be576121be61284e565b600082612afa57634e487b7160e01b600052601260045260246000fd5b500490565b808201808211156121be576121be61284e565b85815260a060208201526000612b2b60a08301876129f9565b6040830195909552506001600160a01b039283166060820152911660809091015292915050565b87815260e060208201526000612b6b60e083018961233c565b8281036040840152612b7d818961233c565b606084018890526001600160a01b038716608085015283810360a08501529050612ba781866129f9565b9150508260c083015298975050505050505050565b602081526000612309602083018461233c56fe4d756c7469706c65207265706f7274732077697468206e6f20636f6e6669726d656420707572636861736573a2646970667358221220a638e1164f05d45f77f03f514d2249910d9ad65863c26bb80b5bfb548c1c56ef64736f6c634300081c0033",
  "linkReferences": {},
  "deployedLinkReferences": {}
}